:020000040000FA
:040000006AEF61F052
:10C030001200810E026EFE0E036EB0EC62F0120072
:10C04000000EC26E0C0EC16E9368800E946E9268E4
:10C05000000E956E000E966E1200016E31EF60F0CC
:10C060000400ACA236EF60F038EF60F030EF60F023
:10C0700001C0ADFF12003EEF60F004009EAA43EF46
:10C0800060F045EF60F03DEF60F0AECF01F00150A1
:10C090001200B896190EAF6E000EB06E000EAC6EA8
:10C0A000AC84AC8A000EAB6EAB88AB8EAE50AE509B
:10C0B000120001500302F3CF05F0F4CF06F0015057
:10C0C0000402F350062602500302F350062605C070
:10C0D00001F006C002F01200000E046E000E036EA6
:10C0E00079EF60F0C80E04000400E82EFCD7034A84
:10C0F000042A0150035C02500458D8A082EF60F07B
:10C1000084EF60F072EF60F0120001C003F002C033
:10C1100004F08DEF60F0014A022A01C0D9FF02C08D
:10C12000DAFFDF50D8A497EF60F099EF60F08BEF63
:10C1300060F00350015C016E04500258026E120060
:10C14000ABB4A5EF60F0A7EF60F0AEEF60F0ABA28C
:10C15000ACEF60F0AEEF60F0B0EF60F0AB98AB88A2
:10C160009EAAB5EF60F0B7EF60F0BAEF60F0010E95
:10C17000BBEF60F0000E1200D00E036EFF0E046ED7
:10C1800001C005F002C006F0035005260450062247
:10C1900006500AE10A0E055CD8A0D1EF60F0D4EF9A
:10C1A00060F0010ED5EF60F0000E016E026A120021
:10C1B0000150021003100410D8B4E1EF60F0E3EF77
:10C1C00060F0EBEF60F0000E011A000E021A000E94
:10C1D000031A800E041A01C001F002C002F003C06D
:10C1E00003F004C004F01200BF0E036EFF0E046ED5
:10C1F00001C005F002C006F00350052604500622D7
:10C2000006500AE11A0E055CD8A009EF61F00CEFA8
:10C2100061F0010E0DEF61F0000E016E026A120076
:10C220009F0E036EFF0E046E01C005F002C006F003
:10C23000035005260450062206500AE11A0E055C3A
:10C24000D8A025EF61F028EF61F0010E29EF61F031
:10C25000000E016E026A12009F0E036EFF0E046E46
:10C26000200E0110056E000E0210066E035005260A
:10C270000450062206500AE11A0E055CD8A043EFCE
:10C2800061F046EF61F0010E47EF61F0000E016EC4
:10C29000026A120014BE57EF61F0145006E1130455
:10C2A000D8B055EF61F057EF61F065EF61F013C062
:10C2B00015F014C016F0151E161E154A162A15C0C4
:10C2C00013F016C014F069EF61F013C013F014C03E
:10C2D00014F0120002EE00F0C80EEE6AE806FDE16E
:10C2E00001EE00F0500EEE6AE806FDE10001FE6B83
:10C2F000FD6BFC6BFB6BFA6BF96B7D6A7C6A7E6A8B
:10C3000000EEF0F0090EEE6AE806FDE1000EF86EB0
:10C310000001A4EF69F0000E106E000E0F6E9CEF8E
:10C3200061F00EC001F0026A0CC003F00DC004F011
:10C3300082EC64F00F4A102A0F500A24D96E105074
:10C340000B20DA6EDF500E6E0E50D8A4AAEF61F00B
:10C35000ACEF61F091EF61F01200000E1E1A000EBA
:10C360001F1A000E201A800E211A1AC001F01BC0DD
:10C3700002F01CC003F01DC004F01EC005F01FC079
:10C3800006F020C007F021C008F037EC72F001C0C1
:10C390001AF002C01BF003C01CF004C01DF0120014
:10C3A000010E076E200E01180210D8B4DAEF61F00A
:10C3B000DCEF61F0F5EF61F0F70E036EFF0E046E37
:10C3C00001C005F002C006F0035005260450062205
:10C3D000065009E1050E055CD8A0F1EF61F0F3EF1E
:10C3E00061F0F5EF61F0000E076E07C001F0026A20
:10C3F0001200D80E0001E86F000EE96FD4C0EAF019
:10C40000D5C0EBF0000EED6F000EEC6F000EEF6F7D
:10C41000000EEE6FEA0ECE6F000ECF6FD6C0D0F0DA
:10C42000D7C0D1F0E80ED26F000ED36FE1EC62F00E
:10C430000001EC51D425D96EED51D521DA6E000EF4
:10C44000DF6E120003C007F004C008F001C009F05D
:10C4500002C00AF00750056E0850066E074A082A07
:10C4600005C0F6FF06C0F7FF000EF86E09C0D9FF41
:10C470000AC0DAFF094A0A2A0F0EF76403D008003F
:10C48000F55005D0F6CFE1FFF7CFE2FFE750DF6EC2
:10C49000DF50D8A44EEF62F050EF62F02AEF62F066
:10C4A00012009F0E096EFF0E0A6E07C00BF008C047
:10C4B0000CF009500B260A500C220C500AE11A0EFF
:10C4C0000B5CD8A066EF62F069EF62F0010E6AEFD4
:10C4D00062F0000E0D6E0E6A0D500E10D8B473EFA0
:10C4E00062F075EF62F07BEF62F05F0E0714076E8B
:10C4F000086A7FEF62F007C007F008C008F012007A
:10C50000BF0E096EFF0E0A6E07C00BF008C00CF0DC
:10C5100009500B260A500C220C500AE11A0E0B5C33
:10C52000D8A095EF62F098EF62F0010E99EF62F0FB
:10C53000000E0D6E0E6A0D500E10D8B4A2EF62F010
:10C54000A4EF62F0ABEF62F0200E0710076E085008
:10C55000086EAFEF62F007C007F008C008F01200E5
:10C56000C7EF62F002C0F6FF03C0F7FF000EF86EDF
:10C570000F0EF76403D00800F55005D0F6CFE1FFA9
:10C58000F7CFE2FFE7502DEC60F0024A032A02C029
:10C59000F6FF03C0F7FF000EF86E0F0EF76403D02E
:10C5A0000800F55005D0F6CFE1FFF7CFE2FFE750E6
:10C5B0000009D8A4DEEF62F0E0EF62F0B2EF62F0C3
:10C5C0001200D0C057F0D1C058F0000E0001FA6F31
:10C5D000000EF96FFFEF62F0CEC043F0CFC044F021
:10C5E000570E456E000E466ED2C047F0D3C048F0DD
:10C5F00097EC74F043500001F9274450FA2357C0D8
:10C60000F6FF58C0F7FF0800F5500009D8A40BEF5B
:10C6100063F00DEF63F0ECEF62F0F9C0CEF0FAC01A
:10C62000CFF01200000E0114096E000E02140A6E03
:10C63000800E03140B6E7F0E04140C6E09500A104A
:10C640000B100C10D8A427EF63F029EF63F031EF43
:10C6500063F0000E016E000E026E000E036E000EFF
:10C66000046E000E0514096E000E06140A6E800E8C
:10C6700007140B6E7F0E08140C6E09500A100B1075
:10C680000C10D8A446EF63F048EF63F050EF63F06E
:10C69000000E056E000E066E000E076E000E086E90
:10C6A000055001180FE1065002180CE1075003185D
:10C6B00009E108500418D8B460EF63F062EF63F04A
:10C6C00065EF63F0D89066EF63F0D8801200000E3B
:10C6D000066E02BE70EF63F06EEF63F076EF63F00C
:10C6E000016C021ED8B0022A010E066E04BE7DEF58
:10C6F00063F07BEF63F081EF63F0036C041ED8B04E
:10C70000042A03500410D8B488EF63F08AEF63F072
:10C71000AEEF63F0010E056E92EF63F0D890033632
:10C720000436052A04AE97EF63F099EF63F08EEFBD
:10C7300063F00350015C04500258D8A0A2EF63F0EC
:10C74000A4EF63F0A8EF63F00350015E0450025AB7
:10C75000D89004320332052E99EF63F00650D8B416
:10C76000B4EF63F0B6EF63F0BAEF63F0016C021E52
:10C77000D8B0022A01C001F002C002F012007CA071
:10C78000C4EF63F0C6EF63F0D0EF63F013C00AF0BC
:10C7900014C00BF011C00CF012C00DF08BEC61F066
:10C7A00016BED5EF63F0D7EF63F0DDEF63F015C091
:10C7B0001AF016C01BF0E1EF63F0000E1B6E000EC6
:10C7C0001A6E000E196E000E186EF3EF63F0000E75
:10C7D000026E200E016E11C003F012C004F082EC54
:10C7E00064F0184A192A1A50185C1950800A176EFA
:10C7F0001B50800A1758D8A000EF64F002EF64F0D5
:10C80000E7EF63F07CB007EF64F009EF64F013EF3B
:10C8100064F013C00AF014C00BF011C00CF012C089
:10C820000DF08BEC61F013C001F014C002F085EC48
:10C8300060F01A500124116E1B500220126E12007B
:10C84000000E066E04BE29EF64F027EF64F02FEFB0
:10C8500064F0036C041ED8B0042A010E066E02BEFA
:10C8600036EF64F034EF64F03CEF64F0016C021ECC
:10C87000D8B0022A010E061A000E086E000E076ECE
:10C8800003500410D8B447EF64F049EF64F071EF3F
:10C8900064F0010E056E51EF64F0D8900336043653
:10C8A000052A04AE56EF64F058EF64F04DEF64F0E3
:10C8B000D890073608360350015C04500258D8A0BF
:10C8C00064EF64F066EF64F06BEF64F00350015EB8
:10C8D0000450025A0780D89004320332052E58EFD4
:10C8E00064F00650D8B477EF64F079EF64F07DEF30
:10C8F00064F0076C081ED8B0082A07C001F008C011
:10C9000002F0120003500410D8B489EF64F08BEFEA
:10C9100064F094EF64F003500410D8A492EF64F034
:10C9200094EF64F099EF64F0015018EC60F0E6EFDA
:10C9300064F020EE04F00350D9260450DA22DE50D1
:10C94000DE10D8B4A6EF64F0A8EF64F0C3EF64F093
:10C9500020EE04F00350D9260450DA2210EE02F043
:10C960000350E1260450E222DE50E65CE650800AE5
:10C97000096EDE50800A0958D8B0C1EF64F0C3EFE9
:10C9800064F0E6EF64F020EE02F00350D926045084
:10C99000DA22DECF05F0DDCF06F003C0D9FF04C0F8
:10C9A000DAFFDECF07F0DDCF08F005500724D96E9F
:10C9B00006500820DA6E01C0DFFF20EE02F00350BF
:10C9C000D9260450DA22DE2A000EDD2212000001F0
:10C9D000FB51FC11D8A4EFEF64F0F1EF64F0F7EF36
:10C9E00064F0FBC010F0FCC011F0FDEF64F0FF0E2E
:10C9F000FB25106EFF0EFC21116E7CA002EF65F08E
:10CA000004EF65F00DEF65F00CC001F0026A0AC09A
:10CA100003F00BC004F082EC64F011BE12EF65F07D
:10CA200014EF65F016EF65F01AEF65F0000E116E69
:10CA3000000E106E000E0F6E000E0E6E2CEF65F0E5
:10CA4000000E026E200E016E0AC003F00BC004F04F
:10CA500082EC64F00E4A0F2A10500E5C0F50800AD0
:10CA60000D6E1150800A0D58D8A039EF65F03BEFDC
:10CA700065F020EF65F07CB040EF65F042EF65F0C7
:10CA80004BEF65F00CC001F0026A0AC003F00BC066
:10CA900004F082EC64F0010E0E240A6E000E0F20EA
:10CAA0000B6E1200F4C00BF0F5C00CF0F6C00DF0E8
:10CAB000F7C00EF001C00BF002C00CF003C00DF087
:10CAC00004C00EF00BC005F00CC006F00DC007F05E
:10CAD0000EC008F0180E72EF65F0D89008320732D9
:10CAE00006320532E82E6DEF65F00550096E0A6AD0
:10CAF00009500A10D8A47FEF65F081EF65F0A1EF2F
:10CB000065F0D8900B34056E0C34066E0D34076E4C
:10CB10000E34086E0550061007100810D8A493EFC5
:10CB200065F095EF65F09BEF65F0000E026E020E6A
:10CB3000016ED0EF65F0000E026E030E016ED0EFB5
:10CB400065F009280A10D8A4A8EF65F0AAEF65F0EF
:10CB5000CCEF65F00BC005F00CC006F00DC007F07F
:10CB60000EC008F0090ED89005360636073608368E
:10CB7000E82EB3EF65F00550061007100810D8B482
:10CB8000C4EF65F0C7EF65F0010EC8EF65F0000E69
:10CB9000016E026AD0EF65F0000E026E040E016EA7
:10CBA0001200000E1A14226E000E1B14236E800E4B
:10CBB0001C14246E7F0E1D14256E22502310241089
:10CBC0002510D8A4E6EF65F0E8EF65F0F0EF65F02A
:10CBD000000E1A6E000E1B6E000E1C6E000E1D6EF7
:10CBE000000E1E14226E000E1F14236E800E2014E1
:10CBF000246E7F0E2114256E225023102410251040
:10CC0000D8A405EF66F007EF66F00FEF66F0000EB0
:10CC10001E6E000E1F6E000E206E000E216E1DAEE9
:10CC200014EF66F016EF66F01FEF66F01A6C1B1E2D
:10CC3000D8B01B2A1C1ED8B01C2A800E1D5621AE4F
:10CC400024EF66F026EF66F02FEF66F01E6C1F1ED5
:10CC5000D8B01F2A201ED8B0202A800E2156000EE0
:10CC60001A1A000E1B1A000E1C1A800E1D1A000E36
:10CC70001E1A000E1F1A000E201A800E211A1E50B6
:10CC80001A5C1F501B5820501C5821501D58D8B0FA
:10CC90004CEF66F04EEF66F051EF66F0D89052EF31
:10CCA00066F0D8801200033404340A6E0A50D8A407
:10CCB0005CEF66F05EEF66F068EF66F0000E016E06
:10CCC000000E026E000E036E000E046ED5EF66F0CD
:10CCD00001C005F002C006F003C007F004C008F070
:10CCE000200E78EF66F0D89008320732063205320F
:10CCF000E82E73EF66F00550096E038EFF0E0116E5
:10CD0000FF0E0216FF0E0316000E0416960E0A5EA4
:10CD10000ABE8FEF66F08DEF66F0A5EF66F00A5061
:10CD2000800A970FD8B097EF66F099EF66F09BEF07
:10CD300066F05EEF66F0D8900432033202320132C0
:10CD40000A3E9BEF66F0BDEF66F01F0E0A64ABEF84
:10CD500066F0ADEF66F0B5EF66F05EEF66F0D89086
:10CD600001360236033604360A060A50D8A4BBEF51
:10CD700066F0BDEF66F0AFEF66F00950D8B4C3EFD0
:10CD800066F0C5EF66F0CDEF66F0041E031E021ECE
:10CD9000016C000E02220322042201C001F002C035
:10CDA00002F003C003F004C004F0120001C008F058
:10CDB00002C009F003C00AF004C00BF00506D8A0B9
:10CDC0000606052806E10628D8A4E9EF66F0EBEF91
:10CDD00066F0F8EF66F0000E026E000E016E65EF71
:10CDE00067F0084A092A0A4A0B2A0506D8A006064F
:10CDF00008C0F6FF09C0F7FF000EF86E0F0EF764CB
:10CE000003D00800F55005D0F6CFE1FFF7CFE2FFE1
:10CE1000E7500009D8B40FEF67F011EF67F048EF63
:10CE200067F00AC0F6FF0BC0F7FF0800F5500009D5
:10CE3000D8B41DEF67F01FEF67F048EF67F00550BB
:10CE40000610D8B426EF67F028EF67F048EF67F0D8
:10CE50000AC0F6FF0BC0F7FF0800F5CF07F008C0C7
:10CE6000F6FF09C0F7FF000EF86E0F0EF76403D04F
:10CE70000800F55005D0F6CFE1FFF7CFE2FFE7500D
:10CE80000718D8B446EF67F048EF67F0F1EF66F0A7
:10CE900008C0F6FF09C0F7FF000EF86E0F0EF7642A
:10CEA00003D00800F55005D0F6CFE1FFF7CFE2FF41
:10CEB000E750076E0AC0F6FF0BC0F7FF0800F550F9
:10CEC000075C016E026AD8A002061200000E126E04
:10CED00008BE6FEF67F06DEF67F081EF67F0081E37
:10CEE000071E061E051E041E031E021E016C000EF8
:10CEF0000222032204220522062207220822010E12
:10CF0000126E10BE88EF67F086EF67F098EF67F05B
:10CF1000101E0F1E0E1E0D1E0C1E0B1E0A1E096C6F
:10CF2000000E0A220B220C220D220E220F221022AA
:10CF300009500A100B100C100D100E100F101010CD
:10CF4000D8B4A5EF67F0A7EF67F0EFEF67F0010E39
:10CF5000116EB5EF67F0D89009360A360B360C36ED
:10CF60000D360E360F361036112A10AEBAEF67F0B6
:10CF7000BCEF67F0ABEF67F00950015C0A50025854
:10CF80000B5003580C5004580D5005580E500658BD
:10CF90000F50075810500858D8A0D1EF67F0D3EFC2
:10CFA00067F0E3EF67F00950015E0A50025A0B5038
:10CFB000035A0C50045A0D50055A0E50065A0F5081
:10CFC000075A1050085AD89010320F320E320D32D4
:10CFD0000C320B320A320932112EBCEF67F01250BC
:10CFE000D8B4F5EF67F0F7EF67F007EF68F0081EC9
:10CFF000071E061E051E041E031E021E016C000EE7
:10D00000022203220422052206220722082201C04E
:10D0100001F002C002F003C003F004C004F005C038
:10D0200005F006C006F007C007F008C008F01200BF
:10D03000000E126E10BE21EF68F01FEF68F033EFA4
:10D0400068F0101E0F1E0E1E0D1E0C1E0B1E0A1E5B
:10D05000096C000E0A220B220C220D220E220F2236
:10D060001022010E126E08BE3AEF68F038EF68F039
:10D070004CEF68F0081E071E061E051E041E031E48
:10D08000021E016C000E0222032204220522062247
:10D0900007220822010E121A20EE13F0070EDE6A94
:10D0A000E806FDE209500A100B100C100D100E10CE
:10D0B0000F101010D8B45FEF68F061EF68F0B3EFB5
:10D0C00068F0010E116E6FEF68F0D89009360A36DD
:10D0D0000B360C360D360E360F361036112A10AEC2
:10D0E00074EF68F076EF68F065EF68F0D89013366B
:10D0F0001436153616361736183619361A360950BC
:10D10000015C0A5002580B5003580C5004580D5043
:10D1100005580E5006580F50075810500858D8A000
:10D1200094EF68F096EF68F0A7EF68F00950015EA1
:10D130000A50025A0B50035A0C50045A0D50055A0B
:10D140000E50065A0F50075A1050085A1380D890A4
:10D1500010320F320E320D320C320B320A320932DB
:10D16000112E76EF68F01250D8B4B9EF68F0BBEF2B
:10D1700068F0CBEF68F01A1E191E181E171E161E37
:10D18000151E141E136C000E1422152216221722CF
:10D19000182219221A2213C001F014C002F015C07F
:10D1A00003F016C004F017C005F018C006F019C04F
:10D1B00007F01AC008F01200000E166E000E156E71
:10D1C000000E0F6E000E0E6EE8EF68F0084A092A96
:10D1D000010E146E08C0F6FF09C0F7FF0800F550F5
:10D1E000200AD8B4F6EF68F0F8EF68F015EF69F0B0
:10D1F000F70E0A6EFF0E0B6E08C0F6FF09C0F7FFB0
:10D200000800F5500C6E0D6A0A500C260B500D22CA
:10D210000D5009E1050E0C5CD8A011EF69F013EF79
:10D2200069F015EF69F0000E146E14C010F0116A69
:10D2300010501110D8A41FEF69F021EF69F0E6EF4C
:10D2400068F02BEF69F0000E0F6E010E0E6E084AAB
:10D25000092A60EF69F008C0F6FF09C0F7FF08006F
:10D26000F5500A6E0B6A0B50000AD8B43AEF69F019
:10D2700060EF69F00A502B0AD8B427EF69F0060A6C
:10D28000D8B423EF69F060EF69F015C001F016C063
:10D2900002F0000E046E0A0E036E59EC60F008C036
:10D2A000F6FF09C0F7FF0800F550015E000E025AB4
:10D2B000300E0124156E000E0220166E27EF69F065
:10D2C000D00E0A6EFF0E0B6E08C0F6FF09C0F7FF06
:10D2D0000800F5500C6E0D6A0A500C260B500D22FA
:10D2E0000D500AE10A0E0C5CD8A079EF69F07CEFD2
:10D2F00069F0010E7DEF69F0000E126E136A125094
:10D300001310D8A486EF69F088EF69F045EF69F053
:10D310000E500F10D8A48FEF69F091EF69F09FEFD6
:10D3200069F015C00AF016C00BF00A1E0B1E0A4A5F
:10D330000B2A0AC008F00BC009F0A3EF69F015C072
:10D3400008F016C009F0120020EC60F049EC60F023
:10D35000000E0001D46F020ED56F9A0ED66FFF0E2D
:10D36000D76FF9EC61F0000E026E020E036EB0ECA6
:10D3700062F0610E206E200E5C6E000E5D6E000E7F
:10D380005B6E000E5A6E000E026E0A0E016E6CECA1
:10D3900060F0A0EC60F00009D8B4D1EF69F0D3EFF1
:10D3A00069F0C3EF69F03BEC60F05CC0D9FF5DC091
:10D3B000DAFFDF6E5C4A5D2A5A4A5B2A5BBEEAEFFF
:10D3C00069F05B5009E10F0E5A5CD8A0EAEF69F0F2
:10D3D000ECEF69F0C3EF69F0200E5C6E000E5D6E3D
:10D3E00032EF6AF05CC0D9FF5DC0DAFF400EDF6447
:10D3F000FCEF69F0FEEF69F012EF6AF05CC0D9FF54
:10D400005DC0DAFF5B0EDF6008EF6AF00AEF6AF0DA
:10D4100012EF6AF05CC0D9FF5DC0DAFF200EDF2694
:10D4200030EF6AF05CC0D9FF5DC0DAFF600EDF64E8
:10D430001CEF6AF01EEF6AF030EF6AF05CC0D9FFB3
:10D440005DC0DAFF7B0EDF6028EF6AF02AEF6AF03A
:10D4500030EF6AF05CC0D9FF5DC0DAFF200EDF5EFE
:10D460005C4A5D2A5CC0D9FF5DC0DAFFDF50D8A4FA
:10D470003CEF6AF03EEF6AF0F2EF69F0200E5C6E6E
:10D48000000E5D6E000E0001D46F020ED56FB50E5A
:10D49000D66FFF0ED76FF9EC61F0000E026E020E30
:10D4A000036EB0EC62F05CC002F05DC003F0B0EC63
:10D4B00062F0000E0001D46F020ED56FBA0ED66F67
:10D4C000FE0ED76FF9EC61F0000E026E020E036ED5
:10D4D000B0EC62F019EC60F004006CEF6AF000EF61
:10D4E00000F0F0C02AF0F1C02BF0F2C02CF0F3C035
:10D4F0002DF01AC02AF01BC02BF01CC02CF01DC050
:10D500002DF0810E1E6EFF0E1F6E2AC020F02BC064
:10D5100021F02CC022F02DC023F0180E95EF6AF0F8
:10D52000D8902332223221322032E82E90EF6AF056
:10D5300020501E24286E000E1F20296E29BEAAEF3F
:10D540006AF0295009E1170E285CD8A0AAEF6AF00A
:10D55000ACEF6AF0B6EF6AF01AC01AF01BC01BF00D
:10D560001CC01CF01DC01DF079EF6BF029BEBBEF95
:10D570006AF0BDEF6AF02DEF6BF028C01EF0FF0ED1
:10D580001F6EFF0E206E7F0E216E000E226E1E6635
:10D59000CCEF6AF0D4EF6AF022342232213220320A
:10D5A0001F321E2EC7EF6AF01FC024F020C025F0E6
:10D5B00021C026F022C027F024502A141E6E2550C8
:10D5C0002B141F6E26502C14206E27502D14216E04
:10D5D0001E501F1020102110D8A4F1EF6AF0F3EFB5
:10D5E0006AF0F5EF6AF0ACEF6AF02AC01EF02BC0CB
:10D5F0001FF02CC020F02DC021F0200E05EF6BF0A5
:10D60000D890213220321F321E32E82E00EF6BF00C
:10D610001E501F1020102110D8B411EF6BF013EF23
:10D620006BF01BEF6BF024502A2625502B2226503E
:10D630002C2227502D22241C1E6E251C1F6E261CFA
:10D64000206E271C216E1E502A161F502B162050AC
:10D650002C1621502D1671EF6BF02AC01EF02BC036
:10D660001FF02CC020F02DC021F0200E3DEF6BF0FC
:10D67000D890213220321F321E32E82E38EF6BF064
:10D680001E501F1020102110D8A449EF6BF04BEF53
:10D690006BF055EF6BF0000E2A6E000E2B6E000E35
:10D6A0002C6E000E2D6E71EF6BF0D8902A341E6E2A
:10D6B0002B341F6E2C34206E2D34216E1E501F1003
:10D6C00020102110D8B467EF6BF069EF6BF071EFA9
:10D6D0006BF0000E2A6E000E2B6E800E2C6EBF0EAD
:10D6E0002D6E2AC01AF02BC01BF02CC01CF02DC0D0
:10D6F0001DF012000001FEBF80EF6BF082EF6BF0B7
:10D7000083EF6BF07C92FEBF90EF6BF0FE5106E171
:10D71000FD05D8B08EEF6BF090EF6BF096EF6BF0ED
:10D72000000E346E010E336E9AEF6BF0FDC033F0D5
:10D73000FEC034F0FBC035F0FCC036F07CA8A3EF8F
:10D740006BF0A5EF6BF0A9EF6BF0FE0E3526FF0E28
:10D7500036221EC037F01FC038F020C039F021C07B
:10D760003AF022C03BF023C03CF024C03DF025C07D
:10D770003EF0000E406E4F0E3F6E000E01014F6FE7
:10D7800075EF6CF03F06D8A040060F0E3714416EBF
:10D79000426A42BED5EF6BF0425009E10A0E415C8D
:10D7A000D8A0D5EF6BF0D7EF6BF0DFEF6BF0570E33
:10D7B0004124416E000E4220426EE5EF6BF0300EC8
:10D7C0004124416E000E4220426EBF0E276EFF0EB6
:10D7D000286E2650296E2A6A2750292628502A2288
:10D7E0002A500AE11A0E295CD8A0F9EF6BF0FCEF81
:10D7F0006BF0010EFDEF6BF0000E2F6E306A2F50B4
:10D800003010D8B406EF6CF008EF6CF038EF6CF025
:10D810009F0E276EFF0E286E200E4110296E000EFF
:10D8200042102A6E2750292628502A222A500AE11F
:10D830001A0E295CD8A01FEF6CF022EF6CF0010EDD
:10D8400023EF6CF0000E316E326A31503210D8B4D2
:10D850002CEF6CF02EEF6CF038EF6CF041C007F05D
:10D8600042C008F051EC62F007C041F008C042F03D
:10D87000000E3F24D96E010E4020DA6E41C0DFFF5A
:10D880003306D8A034063506D8A0360637C027F0B0
:10D8900038C028F039C029F03AC02AF03BC02BF03C
:10D8A0003CC02CF03DC02DF03EC02EF0050E62EFC6
:10D8B0006CF0D8902E322D322C322B322A32293273
:10D8C00028322732E82E59EF6CF027C037F028C0F5
:10D8D00038F029C039F02AC03AF02BC03BF02CC0F8
:10D8E0003CF02DC03DF02EC03EF040BE81EF6CF00C
:10D8F000405009E1020E3F5CD8A081EF6CF083EF4D
:10D900006CF0B3EF6CF03750381039103A103B1010
:10D910003C103D103E10D8A490EF6CF092EF6CF0EC
:10D92000C2EF6BF034BE9FEF6CF0345006E133046D
:10D93000D8B09DEF6CF09FEF6CF0C2EF6BF036BE8D
:10D94000AAEF6CF0365008E13504D8A0AAEF6CF0CD
:10D95000ACEF6CF0B3EF6CF07CB2B1EF6CF0B3EF06
:10D960006CF0C2EF6BF07CA8B8EF6CF0BAEF6CF023
:10D97000D0EF6CF03F06D8A04006000E3F24D96ED1
:10D98000010E4020DA6E26C0DFFF3F06D8A0400619
:10D99000000E3F24D96E010E4020DA6E300EDF6E8D
:10D9A0001CC011F01DC012F0000E3F24136E010EBA
:10D9B0004020146E35C015F036C016F0BFEC63F091
:10D9C00011C01CF012C01DF012001EC036F01FC0A6
:10D9D00037F020C038F021C039F022C03AF023C01F
:10D9E0003BF024C03CF025C03DF03DBEFAEF6CF0AA
:10D9F000FDEF6CF0010EFEEF6CF0000E346E356A38
:10DA000034503510D8B407EF6DF009EF6DF019EF11
:10DA10006DF03D1E3C1E3B1E3A1E391E381E371E41
:10DA2000366C000E3722382239223A223B223C2221
:10DA30003D220001FEBF1FEF6DF021EF6DF022EFE0
:10DA40006DF07C92FEBF2FEF6DF0FE5106E1FD05FB
:10DA5000D8B02DEF6DF02FEF6DF035EF6DF0000EBB
:10DA6000316E010E306E39EF6DF0FDC030F0FEC04A
:10DA700031F0FBC032F0FCC033F034503510D8A484
:10DA800044EF6DF046EF6DF04DEF6DF07CA44BEF81
:10DA90006DF04DEF6DF050EF6DF03206D8A033060B
:10DAA000000E3F6E4F0E3E6E000E01014F6FD5EF20
:10DAB0006DF03E06D8A03F06000E3E24D96E010E42
:10DAC0003F20DA6E36C001F037C002F038C003F0F4
:10DAD00039C004F03AC005F03BC006F03CC007F086
:10DAE0003DC008F00A0E096E000E0A6E000E0B6EA5
:10DAF000000E0C6E000E0D6E000E0E6E000E0F6E00
:10DB0000000E106E66EC67F001C026F002C027F030
:10DB100003C028F004C029F005C02AF006C02BF08D
:10DB200007C02CF008C02DF026C013F028C014F058
:10DB30004AEC61F01350300FDF6E3006D8A031068A
:10DB40003206D8A0330636C001F037C002F038C024
:10DB500003F039C004F03AC005F03BC006F03CC009
:10DB600007F03DC008F00A0E096E000E0A6E000EA6
:10DB70000B6E000E0C6E000E0D6E000E0E6E000E83
:10DB80000F6E000E106E18EC68F001C036F002C087
:10DB900037F003C038F004C039F005C03AF006C0D1
:10DBA0003BF007C03CF008C03DF03FBEE0EF6DF039
:10DBB0003F5008E13E04D8A0E0EF6DF0E2EF6DF0D9
:10DBC00012EF6EF036503710381039103A103B1003
:10DBD0003C103D10D8A4EFEF6DF0F1EF6DF059EF70
:10DBE0006DF031BEFEEF6DF0315006E13004D8B07B
:10DBF000FCEF6DF0FEEF6DF059EF6DF033BE09EF05
:10DC00006EF0335008E13204D8A009EF6EF00BEF4C
:10DC10006EF012EF6EF07CB210EF6EF012EF6EF05D
:10DC200059EF6DF034503510D8A419EF6EF01BEF9A
:10DC30006EF022EF6EF07CA420EF6EF022EF6EF01B
:10DC400040EF6EF03E06D8A03F0634503510D8A401
:10DC50002CEF6EF02EEF6EF034EF6EF0000E2F6EA4
:10DC60002B0E2E6E38EF6EF0000E2F6E2D0E2E6ED8
:10DC7000000E3E24D96E010E3F20DA6E2EC0DFFF6B
:10DC80001CC011F01DC012F0000E3E24136E010ED8
:10DC90003F20146E32C015F033C016F0BFEC63F0B5
:10DCA00011C01CF012C01DF012000450800B116E48
:10DCB00004500424186E03AE60EF6EF062EF6EF055
:10DCC00063EF6EF018801850D8B469EF6EF06BEF08
:10DCD0006EF080EF6EF01828D8A471EF6EF073EF3D
:10DCE0006EF07BEF6EF0000E016E000E026E000E05
:10DCF000036E000E046E038E000E046E88EF6EF04D
:10DD0000000E016E000E026E000E036E000E046E19
:10DD10000850800B111A08500824196E07AE93EFB3
:10DD20006EF095EF6EF096EF6EF019801950D8B442
:10DD30009CEF6EF09EEF6EF0B3EF6EF01928D8A452
:10DD4000A4EF6EF0A6EF6EF0AEEF6EF0000E056E73
:10DD5000000E066E000E076E000E086E078E000E97
:10DD6000086EBBEF6EF0000E056E000E066E000E24
:10DD7000076E000E086E0550061007100810D8A494
:10DD8000C4EF6EF0C6EF6EF0DEEF6EF0000E016EC7
:10DD9000000E026E000E036E000E046E800E031263
:10DDA0007F0E04121150041201C001F002C002F0F3
:10DDB00003C003F004C004F021EF70F01850D8A4A1
:10DDC000E4EF6EF0E6EF6EF0F0EF6EF0000E016E35
:10DDD000000E026E000E036E000E046E21EF70F056
:10DDE000195018C009F00A6A095E000E0A5A7F0E1F
:10DDF0000924126E000E0A20136E01C00DF002C03D
:10DE00000EF003C00FF004C010F0000E016E000E03
:10DE1000026E000E036E000E046E000E146E000EF5
:10DE2000156E000E166E000E176E000E196E51EF75
:10DE30006FF01950D8B41FEF6FF021EF6FF038EF8B
:10DE40006FF0D8900D360E360F361036D89001365A
:10DE500002360336043617AE30EF6FF032EF6FF054
:10DE600033EF6FF00180D89014361536163617361A
:10DE700005500D5C06500E5807500F5808501058AA
:10DE8000D8A045EF6FF047EF6FF050EF6FF0178CB1
:10DE900005500D5E06500E5A07500F5A0850105A82
:10DEA000192A190E196457EF6FF059EF6FF019EF37
:10DEB0006FF00D500E100F101010D8B462EF6FF00D
:10DEC00064EF6FF07CEF6FF014807CEF6FF0D89010
:10DED000013602360336043617AE71EF6FF073EF7A
:10DEE0006FF074EF6FF00180D89014361536163647
:10DEF00017361206D8A0130603AE81EF6FF083EF3A
:10DF00006FF067EF6FF0000E196E17AE8AEF6FF0CB
:10DF10008CEF6FF0B0EF6FF0FF0E1414096EFF0E70
:10DF200015140A6EFF0E16140B6E7F0E17140C6E6E
:10DF300009500A100B100C10D8B4A1EF6FF0A3EF2A
:10DF40006FF0A7EF6FF0010E196EB0EF6FF001A048
:10DF5000ACEF6FF0AEEF6FF0B0EF6FF0A3EF6FF0DC
:10DF60001950D8B4B6EF6FF0B8EF6FF0DCEF6FF088
:10DF7000010E0126000E02220322042204A0C3EF98
:10DF80006FF0C5EF6FF0DCEF6FF001C009F002C079
:10DF90000AF003C00BF004C00CF00C340C320B324E
:10DFA0000A32093209C001F00AC002F00BC003F0C6
:10DFB0000CC004F0124A132A13BEE7EF6FF013509F
:10DFC00008E11228D8A0E7EF6FF0E9EF6FF0F4EF67
:10DFD0006FF0000E136E1268000E016E000E026EDE
:10DFE000000E036E000E046E13BE01EF70F01350AE
:10DFF00006E11204D8B0FFEF6FF001EF70F00FEF01
:10E0000070F0000E136E000E126E000E016E000E08
:10E01000026E000E036E000E046E000E116E12C032
:10E0200018F018A016EF70F018EF70F01BEF70F0FA
:10E03000038E1CEF70F0039ED8901830046ED2EF60
:10E040006EF012000450800B0D6E04500424136E09
:10E0500003AE2DEF70F02FEF70F030EF70F0138003
:10E060001350D8B436EF70F038EF70F04BEF70F01B
:10E070001328D8A43EEF70F040EF70F048EF70F036
:10E08000000E016E000E026E000E036E000E046E96
:10E09000038E53EF70F0000E016E000E026E000E44
:10E0A000036E000E046E0850800B0D1A08500824F1
:10E0B000126E07AE5EEF70F060EF70F061EF70F01F
:10E0C00012801250D8B467EF70F069EF70F07CEFF7
:10E0D00070F01228D8A46FEF70F071EF70F079EF44
:10E0E00070F0000E056E000E066E000E076E000E3C
:10E0F000086E078E84EF70F0000E056E000E066E3F
:10E10000000E076E000E086E1250D8B48AEF70F041
:10E110008CEF70F094EF70F01350D8A492EF70F081
:10E1200094EF70F09EEF70F0000E016E000E026E24
:10E13000000E036E000E046E36EF72F007500102FF
:10E14000F3CF18F0F4CF19F018500E6E0F6A106A62
:10E15000116A1950146E156A166A176A065002027F
:10E16000F3CF18F0F4CF19F018500E26000E0F223E
:10E170001022112219501426000E152216221722E1
:10E1800005500302F3CF18F0F4CF19F018500E2603
:10E19000000E0F221022112219501426000E1522F3
:10E1A0001622172210C011F00FC010F00EC00FF091
:10E1B0000E6A05500202F3CF18F0F4CF19F0185090
:10E1C0000E2619500F22000E1022000E11220650AA
:10E1D0000102F3CF18F0F4CF19F018500E261950A1
:10E1E0000F22000E1022000E112210C011F00FC0DD
:10E1F00010F00EC00FF00E6A05500102F3CF18F0B8
:10E20000F4CF19F018500E2619500F22000E1022CC
:10E21000000E112207500202F3CF18F0F4CF19F0CC
:10E220001850142619501522000E1622000E17221F
:10E2300006500302F3CF18F0F4CF19F0185014264B
:10E2400019501522000E1622000E17220750030245
:10E25000F3CF18F0F4CF19F01850096E19500A6E68
:10E260000B6A0C6A0BC00CF00AC00BF009C00AF074
:10E27000096A095014260A5015220B5016220C5018
:10E2800017220EC009F00FC00AF010C00BF011C029
:10E290000CF0190E51EF71F0D8900C320B320A329B
:10E2A0000932E82E4CEF71F0095014260A5015225D
:10E2B0000B5016220C50172210C011F00FC010F096
:10E2C0000EC00FF00E6A125013C009F00A6A092638
:10E2D000000E0A22820E0924186EFF0E0A20196E03
:10E2E00087EF71F0D890143615361636173611AE02
:10E2F0007CEF71F07EEF71F07FEF71F01480D890B9
:10E300000E360F36103611361806D8A0190616AE7E
:10E310008CEF71F08EEF71F072EF71F0000E126EF3
:10E3200011AE95EF71F097EF71F0BBEF71F0FF0E4A
:10E330000E14096EFF0E0F140A6EFF0E10140B6EF2
:10E340007F0E11140C6E09500A100B100C10D8B46B
:10E35000ACEF71F0AEEF71F0B2EF71F0010E126E32
:10E36000BBEF71F014A0B7EF71F0B9EF71F0BBEF34
:10E3700071F0AEEF71F01250D8B4C1EF71F0C3EF8D
:10E3800071F0E7EF71F0010E1426000E152216222F
:10E39000172217A0CEEF71F0D0EF71F0E7EF71F018
:10E3A00014C009F015C00AF016C00BF017C00CF02D
:10E3B0000C340C320B320A32093209C014F00AC094
:10E3C00015F00BC016F00CC017F0184A192A19BE28
:10E3D000F2EF71F0195008E11828D8A0F2EF71F0AF
:10E3E000F4EF71F0FEEF71F0000E146E000E156E7A
:10E3F000800E166E7F0E176E2CEF72F019BE0BEFAB
:10E4000072F0195006E11804D8B009EF72F00BEF62
:10E4100072F017EF72F0000E146E000E156E000E03
:10E42000166E000E176E000E0D6E2CEF72F018C0F7
:10E4300013F0FF0E1416FF0E15167F0E1616000EA3
:10E44000171613A026EF72F028EF72F029EF72F082
:10E45000168ED8901330176E0D50171214C001F09D
:10E4600015C002F016C003F017C004F012000450EB
:10E47000800B0D6E045004240F6E03AE42EF72F059
:10E4800044EF72F045EF72F00F800F50D8B44BEFAD
:10E4900072F04DEF72F062EF72F00F28D8A453EFD4
:10E4A00072F055EF72F05DEF72F0000E016E000E2B
:10E4B000026E000E036E000E046E038E000E046EDC
:10E4C0006AEF72F0000E016E000E026E000E036E17
:10E4D000000E046E0850800B0E6E0D500E18D8B44E
:10E4E00074EF72F076EF72F077EF72F00D8C0850E7
:10E4F00008240E6E07AE7FEF72F081EF72F082EFAC
:10E5000072F00E800E50D8B488EF72F08AEF72F07D
:10E510009FEF72F00E28D8A490EF72F092EF72F095
:10E520009AEF72F0000E056E000E066E000E076E7A
:10E53000000E086E078E000E086EA7EF72F0000E38
:10E54000056E000E066E000E076E000E086E0F5070
:10E550000E5CD8B0AEEF72F0B0EF72F0D7EF72F0A1
:10E560000DACB5EF72F0B7EF72F0B9EF72F0800E4C
:10E570000D1A0FC010F00EC00FF010C00EF001C049
:10E5800010F005C001F010C005F002C010F006C088
:10E5900002F010C006F003C010F007C003F010C076
:10E5A00007F004C010F008C004F010C008F0000E1E
:10E5B000106E0F500EC009F00A6A095E000E0A5A6A
:10E5C0000ABEECEF72F00A5009E11A0E095CD8A0FD
:10E5D000ECEF72F0EEEF72F025EF73F001500210E5
:10E5E00003100410D8A4F7EF72F0FAEF72F0010EE6
:10E5F000FBEF72F0000E106E000E016E000E026E48
:10E60000000E036E000E046E0EC00FF02EEF73F0BE
:10E6100010A00DEF73F00FEF73F015EF73F0D890BB
:10E6200010300109106E17EF73F0D890103201A06E
:10E630001CEF73F01EEF73F01FEF73F0108E0434B5
:10E6400004320332023201320F2A0E500F5CD8A07E
:10E650002CEF73F02EEF73F008EF73F00DBC33EF77
:10E6600073F035EF73F075EF73F00F50D8A43BEFF4
:10E6700073F03DEF73F047EF73F0000E016E000E84
:10E68000026E000E036E000E046E96EF74F00550DD
:10E69000012606500222075003220850042204A03B
:10E6A00054EF73F056EF73F002EF74F010A05BEFCD
:10E6B00073F05DEF73F063EF73F0D89010300109E1
:10E6C000106E65EF73F0D890103201A06AEF73F00E
:10E6D0006CEF73F06DEF73F0108E0434043203327C
:10E6E000023201320F2A02EF74F00550015C06502D
:10E6F0000258075003580450800A096E0850800AD7
:10E700000958D8B086EF73F088EF73F0B3EF73F069
:10E710000150055C096E025006580A6E03500758F6
:10E720000B6E045008580C6EFF0E0924016EFF0E8C
:10E730000A20026EFF0E0B20036EFF0E0C20046EEB
:10E74000800E0D1A106C1050D8A4A9EF73F0ABEF27
:10E7500073F0BBEF73F0010E0126000E02220322BC
:10E760000422BBEF73F00550015E0650025A0750B9
:10E77000035A0850045A0150021003100410D8A480
:10E78000C4EF73F0C6EF73F0FBEF73F01050D8A432
:10E79000CCEF73F0CEEF73F0FBEF73F0000E016E71
:10E7A000000E026E000E036E000E046E96EF74F003
:10E7B000D890013602360336043610AEE2EF73F01D
:10E7C000E4EF73F0E5EF73F0018010A0EAEF73F06F
:10E7D000ECEF73F0F0EF73F0D8801036F2EF73F0D7
:10E7E000D89010360F50D8B4F8EF73F0FAEF73F0FA
:10E7F000FBEF73F00F0603AE00EF74F002EF74F05E
:10E80000D8EF73F0000E0E6E10AE09EF74F00BEF40
:10E8100074F023EF74F010C009F07F0E0916D8B41D
:10E8200014EF74F016EF74F01AEF74F0010E0E6E20
:10E8300023EF74F001A01FEF74F021EF74F023EFC9
:10E8400074F016EF74F00E50D8B429EF74F02BEF7B
:10E8500074F056EF74F0010E0126000E022203221E
:10E86000042204A036EF74F038EF74F056EF74F021
:10E8700001C009F002C00AF003C00BF004C00CF0A4
:10E880000C340C320B320A32093209C001F00AC0D2
:10E8900002F00BC003F00CC004F00F28D8B453EF03
:10E8A00074F055EF74F056EF74F00F2A0F28D8B4B7
:10E8B0005CEF74F05EEF74F066EF74F00F50D8A464
:10E8C00064EF74F066EF74F078EF74F0000E016E90
:10E8D000000E026E000E036E000E046E0F50D8A4E0
:10E8E00074EF74F076EF74F078EF74F0000E0D6E44
:10E8F0000FA07DEF74F07FEF74F082EF74F0038E61
:10E9000083EF74F0039ED8900F30046E0DAE8BEF42
:10E9100074F08DEF74F08EEF74F0048E01C001F08E
:10E9200002C002F003C003F004C004F0120045C0AE
:10E93000D9FF46C0DAFFDECFF6FFDDCFF7FF0800D4
:10E94000F550250AD8A4A7EF74F0A9EF74F0F7EFFB
:10E9500078F045C0D9FF46C0DAFFDE2A000EDD227E
:10E96000000E0001FC6F000EFB6FFBC07CF0FCC0D2
:10E970007DF0FD69FE69000E5F6E000E5E6E07EFB2
:10E9800075F07C8045C0D9FF46C0DAFFDE2A000E54
:10E99000DD2207EF75F07C82C2EF74F07C84C2EF59
:10E9A00074F07C86C2EF74F07C88C2EF74F0000EC5
:10E9B0005F6E010E5E6E07EF75F045C0D9FF46C071
:10E9C000DAFFDECFF6FFDDCFF7FF0800F550496E26
:10E9D0004A6A4A50000AD8B4F0EF74F0D7EF74F0E6
:10E9E0004950200AD8B4D1EF74F0030AD8B4D4EF58
:10E9F00074F0080AD8B4CEEF74F0060AD8B4C1EFA8
:10EA000074F01D0AD8B4CBEF74F0D7EF74F05E50F9
:10EA10005F10D8B40EEF75F010EF75F0DDEF74F005
:10EA20007CA015EF75F017EF75F018EF75F07C927C
:10EA300045C0D9FF46C0DAFFDECFF6FFDDCFF7FFD6
:10EA40000800F5502A0AD8A428EF75F02AEF75F0CF
:10EA500054EF75F045C0D9FF46C0DAFFDE2A000E3C
:10EA6000DD2247C0D9FF48C0DAFFDFCF49F0020EF0
:10EA7000DE26DFCF4AF0000EDD2249C0D9FF4AC0B2
:10EA8000DAFFDECFFBF0DDCFFCF00001FCBF4DEF85
:10EA900075F04BEF75F097EF75F07C80FB6DFC1F08
:10EAA000D8B0FC2B97EF75F045C0D9FF46C0DAFF10
:10EAB000DECF08F0DDCF09F0DCEC68F008C0FBF039
:10EAC00009C0FCF06BEF75F045C0D9FF46C0DAFF16
:10EAD000DE2A000EDD22D00E496EFF0E4A6E45C0C2
:10EAE000D9FF46C0DAFFDECFF6FFDDCFF7FF080023
:10EAF000F5504B6E4C6A49504B264A504C224C50B4
:10EB00000AE10A0E4B5CD8A088EF75F08BEF75F028
:10EB1000010E8CEF75F0000E606E616A605061103E
:10EB2000D8A495EF75F097EF75F064EF75F045C0D8
:10EB3000D9FF46C0DAFFDECFF6FFDDCFF7FF0800D2
:10EB4000F550076E086A80EC62F00750786E7850D6
:10EB5000D8B4ADEF75F0AFEF75F0E7EF75F045C0E5
:10EB6000D9FF46C0DAFFDECF49F0DDCF4AF0010E13
:10EB70004926000E4A2249C0F6FF4AC0F7FF0800A6
:10EB8000F550076E086A80EC62F00750796E795094
:10EB9000D8B4CDEF75F0CFEF75F0E7EF75F045C065
:10EBA000D9FF46C0DAFFDECF49F0DDCF4AF0020ED2
:10EBB0004926000E4A2249C0F6FF4AC0F7FF080066
:10EBC000F550076E086A80EC62F007507A6E45C017
:10EBD000D9FF46C0DAFFDECFF6FFDDCFF7FF080032
:10EBE000F550630AD8A4F7EF75F0F9EF75F020EF50
:10EBF00076F045C0D9FF46C0DAFFDE2A000EDD22DE
:10EC000047C0D9FF48C0DAFFDFCF49F0020EDE2649
:10EC1000DFCF4AF0000EDD2249C0D9FF4AC0DAFF3B
:10EC2000DF507B6E43C00AF044C00BF07BC00CF099
:10EC3000E7EC64F00AC043F00BC044F012EF79F047
:10EC400045C0D9FF46C0DAFFDECFF6FFDDCFF7FFC4
:10EC50000800F550640AD8B430EF76F032EF76F061
:10EC600044EF76F045C0D9FF46C0DAFFDECFF6FFAD
:10EC7000DDCFF7FF0800F550690AD8A442EF76F01F
:10EC800044EF76F084EF76F045C0D9FF46C0DAFF56
:10EC9000DE2A000EDD2247C0D9FF48C0DAFFDFCFF1
:10ECA00049F0020EDE26DFCF4AF0000EDD2249C019
:10ECB000D9FF4AC0DAFFDECF64F0DDCF65F0000E89
:10ECC00065BEFF0E666E676E686E696E6A6E6B6E0D
:10ECD00043C01CF044C01DF064C01EF065C01FF0AE
:10ECE00066C020F067C021F068C022F069C023F040
:10ECF0006AC024F06BC025F0E5EC6CF01CC043F05A
:10ED00001DC044F012EF79F045C0D9FF46C0DAFFCC
:10ED1000DECF01F0DDCF02F0F20E036EFF0E046EC7
:10ED2000000E066E020E056ED6EC66F00150021063
:10ED3000D8B49DEF76F09FEF76F0BAEF76F045C04D
:10ED4000D9FF46C0DAFFDECF01F0DDCF02F0F80ECA
:10ED5000036EFF0E046E000E066E020E056ED6ECFC
:10ED600066F001500210D8A4B8EF76F0BAEF76F052
:10ED7000FDEF76F0020E45C0D9FF46C0DAFFDE2671
:10ED8000000EDD2247C0D9FF48C0DAFFDFCF49F0CF
:10ED9000040EDE26DFCF4AF0000EDD2249C0D9FF87
:10EDA0004AC0DAFFDECF4BF0DECF4CF0DECF4DF0C5
:10EDB000DECF4EF04BC04FF04CC050F04DC051F084
:10EDC0004EC052F0536A52BE536853C054F053C001
:10EDD00055F053C056F04FC064F050C065F051C0BC
:10EDE00066F052C067F053C068F054C069F055C077
:10EDF0006AF056C06BF068EF76F0660E7818D8A40B
:10EE000004EF77F006EF77F046EF77F045C0D9FFD3
:10EE100046C0DAFFDECFF6FFDDCFF7FF0800F5CF03
:10EE20007BF045C0D9FF46C0DAFFDE2A000EDD22A6
:10EE300047C0D9FF48C0DAFFDFCF49F0040EDE2615
:10EE4000DFCF4AF0000EDD2249C0D9FF4AC0DAFF09
:10EE5000DECF74F0DECF75F0DECF76F0DECF77F068
:10EE600043C02EF044C02FF074C030F075C031F0B4
:10EE700076C032F077C033F07BC034F013EC79F019
:10EE80002EC043F02FC044F012EF79F0780E016EDF
:10EE9000000E026EF50E036EFF0E046E000E066E7F
:10EEA000020E056ED6EC66F001500210D8A45BEF9E
:10EEB00077F05DEF77F0D8EF77F045C0D9FF46C027
:10EEC000DAFFDECF49F0DDCF4AF0010E4926000E11
:10EED0004A2249C0F6FF4AC0F7FF0800F5CF7BF091
:10EEE000BF0E496EFF0E4A6E45C0D9FF46C0DAFF1D
:10EEF000DECFF6FFDDCFF7FF0800F5504B6E4C6A12
:10EF000049504B264A504C224C500AE11A0E4B5C99
:10EF1000D8A08DEF77F090EF77F0010E91EF77F0BA
:10EF2000000E626E636A62506310D8B49AEF77F095
:10EF30009CEF77F0B6EF77F047C0D9FF48C0DAFF13
:10EF4000DFCF49F0040EDE26DFCF4AF0000EDD22CF
:10EF500049C0D9FF4AC0DAFFDECF74F0DECF75F0CA
:10EF6000DECF76F0DECF77F0CEEF77F047C0D9FF77
:10EF700048C0DAFFDFCF49F0040EDE26DFCF4AF0CB
:10EF8000000EDD2249C0D9FF4AC0DAFFDECF74F09F
:10EF9000DECF75F0DECF76F0DECF77F0020E45C023
:10EFA000D9FF46C0DAFFDE26000EDD2230EF77F013
:10EFB00045C0D9FF46C0DAFFDECFF6FFDDCFF7FF51
:10EFC0000800F550780AD8B4E8EF77F0EAEF77F068
:10EFD000FCEF77F045C0D9FF46C0DAFFDECFF6FF81
:10EFE000DDCFF7FF0800F550580AD8A4FAEF77F004
:10EFF000FCEF77F04AEF78F045C0D9FF46C0DAFF62
:10F00000DECFF6FFDDCFF7FF0800F5CF7BF045C080
:10F01000D9FF46C0DAFFDE2A000EDD2247C0D9FF45
:10F0200048C0DAFFDFCF49F0020EDE26DFCF4AF01C
:10F03000000EDD2249C0D9FF4AC0DAFFDECF4BF017
:10F04000DDCF4CF04BC06CF04CC06DF06E6A6F6A57
:10F05000706A716A726A736A43C01CF044C01DF022
:10F060006CC01EF06DC01FF06EC020F06FC021F0AC
:10F0700070C022F071C023F072C024F073C025F07C
:10F080007BC026F07AEC6BF01CC043F01DC044F04E
:10F0900012EF79F045C0D9FF46C0DAFFDECF01F0AC
:10F0A000DDCF02F0FB0E036EFF0E046E000E066E47
:10F0B000020E056ED6EC66F001500210D8B463EF74
:10F0C00078F065EF78F080EF78F045C0D9FF46C062
:10F0D000DAFFDECF01F0DDCF02F0EF0E036EFF0EA0
:10F0E000046E000E066E020E056ED6EC66F0015040
:10F0F0000210D8A47EEF78F080EF78F0C1EF78F0BE
:10F1000045C0D9FF46C0DAFFDECF49F0DDCF4AF077
:10F11000010E4926000E4A2249C0F6FF4AC0F7FFF9
:10F120000800F5CF7BF0020E45C0D9FF46C0DAFFDC
:10F13000DE26000EDD2247C0D9FF48C0DAFFDFCF50
:10F1400049F0040EDE26DFCF4AF0000EDD2249C072
:10F15000D9FF4AC0DAFFDECF4BF0DECF4CF0DECF76
:10F160004DF0DECF4EF04B506C6E4C506D6E4D50EE
:10F170006E6E4E506F6E706A716A726A736A2CEFAF
:10F1800078F045C0D9FF46C0DAFFDECFF6FFDDCF0D
:10F19000F7FF0800F550250AD8A4D1EF78F0D3EF97
:10F1A00078F0EAEF78F045C0D9FF46C0DAFFDE2AF2
:10F1B000000EDD22000E026E250E016E43C003F02C
:10F1C00044C004F082EC64F0000E446E010E436E05
:10F1D00012EF79F045C0D9FF46C0DAFFDE2A000EF3
:10F1E000DD22000E446E000E436E12EF79F045C032
:10F1F000D9FF46C0DAFFDECFF6FFDDCFF7FF08000C
:10F20000F550016E026A43C003F044C004F082EC82
:10F2100064F045C0D9FF46C0DAFFDE2A000EDD22C9
:10F22000E4EF78F01200000E0001B16F000EB06F35
:10F2300030C0C2F031C0C3F032C0C4F033C0C5F03A
:10F24000C5BF27EF79F025EF79F03DEF79F0000E9B
:10F25000B16F010EB06FC2C001F0C3C002F0C4C0F4
:10F2600003F0C5C004F0D8EC60F001C0C2F002C0E9
:10F27000C3F003C0C4F004C0C5F0000E0001C96FA4
:10F28000000EC86FFBC0B4F0FCC0B5F0B051B111B6
:10F29000D8A44DEF79F04FEF79F056EF79F07CA4D8
:10F2A00054EF79F056EF79F070EF79F0B051B11179
:10F2B000D8A45DEF79F05FEF79F065EF79F0000E9B
:10F2C000976F2B0E966F69EF79F0000E976F2D0EEA
:10F2D000966F96C000F1C84BC92BB407D8A0B507EC
:10F2E000C2C001F0C3C002F0C4C003F0C5C004F046
:10F2F00052EC65F001040210D8A481EF79F083EF9D
:10F3000079F0DAEF79F0BF0E356EFF0E366E3450BD
:10F31000376E386A355037263650382238500AE171
:10F320001A0E375CD8A097EF79F09AEF79F0010EBA
:10F330009BEF79F0000E0001986F996B985199112D
:10F34000D8B4A5EF79F0A7EF79F0B5EF79F0000E1A
:10F35000C825016E010EC921026EDF0E036EFF0E7D
:10F36000046E22EC62F0C1EF79F0000EC825016E48
:10F37000010EC921026EE70E036EFF0E046E22EC31
:10F3800062F00001FD0EB427FF0EB5232EC011F070
:10F390002FC012F0000E136E010E146EB4C015F0E3
:10F3A000B5C016F0BFEC63F011C02EF012C02FF004
:10F3B0003FEF7FF0C2C001F0C3C002F0C4C003F051
:10F3C000C5C004F052EC65F001500210D8A4EBEF78
:10F3D00079F0EDEF79F02DEF7AF0BF0E356EFF0E7C
:10F3E000366E3450376E386A3550372636503822EC
:10F3F00038500AE11A0E375CD8A001EF7AF004EF1A
:10F400007AF0010E05EF7AF0000E00019A6F9B6B07
:10F410009A519B11D8B40FEF7AF011EF7AF01FEFE9
:10F420007AF0000EC825016E010EC921026EE30EAE
:10F43000036EFF0E046E22EC62F0C1EF79F0000E55
:10F44000C825016E010EC921026EEB0E036EFF0E80
:10F45000046E22EC62F0C1EF79F0000E0001CA6F79
:10F46000000ECB6F800ECC6F3F0ECD6F000EC76FBE
:10F47000000EC66FC2C001F0C3C002F0C4C003F0EA
:10F48000C5C004F0000E056E000E066E000E076E7D
:10F49000000E086E12EC63F0D8B051EF7AF053EF23
:10F4A0007AF0D6EF7AF072EF7AF0CAC001F0CBC0F2
:10F4B00002F0CCC003F0CDC004F0000E056E000ECB
:10F4C000066E200E076E410E086E22EC70F001C031
:10F4D000CAF002C0CBF003C0CCF004C0CDF00001F4
:10F4E000C64BC72BC2C01AF0C3C01BF0C4C01CF06F
:10F4F000C5C01DF0000E056E000E066E200E076ED4
:10F50000410E086ECAC001F0CBC002F0CCC003F0BF
:10F51000CDC004F022EC70F001C01EF002C01FF05C
:10F5200003C020F004C021F0D1EC65F0D8B09BEF0F
:10F530007AF09DEF7AF055EF7AF0BDEF7AF0CAC01D
:10F5400001F0CBC002F0CCC003F0CDC004F0000E3F
:10F55000056E000E066E200E076E410E086E55EC0D
:10F560006EF001C0CAF002C0CBF003C0CCF004C002
:10F57000CDF00001C607D8A0C707C2C01AF0C3C0AB
:10F580001BF0C4C01CF0C5C01DF0CAC01EF0CBC02B
:10F590001FF0CCC020F0CDC021F0D1EC65F0D8A098
:10F5A000D4EF7AF0D6EF7AF09FEF7AF034C007F01C
:10F5B000086A80EC62F007500001B76FB7C0B6F080
:10F5C000670EB719D8A4E7EF7AF0E9EF7AF00FEFFA
:10F5D0007BF0FD51FE11D8A4F0EF7AF0F2EF7AF053
:10F5E000F6EF7AF0000EFE6F010EFD6FFEBF03EF27
:10F5F0007BF0FE5106E1FD05D8B001EF7BF003EF93
:10F600007BF009EF7BF0000EB36F060EB26F18EFC0
:10F610007BF0FDC0B2F0FEC0B3F018EF7BF0FEBF90
:10F6200014EF7BF016EF7BF003EF7BF009EF7BF03C
:10F63000670EB719D8A41FEF7BF021EF7BF050EFD6
:10F640007BF0C7AF2FEF7BF0FC0EC65DFF0EC759F6
:10F65000D8A02DEF7BF02FEF7BF04EEF7BF0FF0E6D
:10F66000356EFF0E366EB2C037F0B3C038F035508D
:10F67000372636503822C651375C3850800A396EEA
:10F68000C751800A3958D8A048EF7BF04AEF7BF089
:10F690004EEF7BF0660EB66F50EF7BF0650EB66FE7
:10F6A000B2C0A8F0B3C0A9F0670EB719D8A45BEF39
:10F6B0007BF05DEF7BF06DEF7BF0660EB619D8A4A2
:10F6C00064EF7BF066EF7BF06FEF7BF0C7BF6DEF11
:10F6D0007BF06BEF7BF06FEF7BF0A84BA92B660EF6
:10F6E000B619D8A476EF7BF078EF7BF098EF7BF03B
:10F6F000C7BF7FEF7BF07DEF7BF08BEF7BF0000EE1
:10F70000CA6F000ECB6F800ECC6F3F0ECD6F000E18
:10F71000C76F000EC66F670EB719D8B492EF7BF0B3
:10F7200094EF7BF098EF7BF0C651A827C751A9232F
:10F73000000EC16F000EC06FC2C0B8F0C3C0B9F0F8
:10F74000C4C0BAF0C5C0BBF0CAC0AAF0CBC0ABF011
:10F75000CCC0ACF0CDC0ADF029EF7CF0B8C001F06A
:10F76000B9C002F0BAC003F0BBC004F0CAC005F0D3
:10F77000CBC006F0CCC007F0CDC008F055EC6EF061
:10F7800001C01AF002C01BF003C01CF004C01DF041
:10F7900071EC6AF01AC0BCF01BC0BDF01CC0BEF01A
:10F7A0001DC0BFF0BCC001F0BDC002F0BEC003F080
:10F7B000BFC004F053EC66F001C0AEF002C0AFF081
:10F7C000B8C01AF0B9C01BF0BAC01CF0BBC01DF025
:10F7D000CAC005F0CBC006F0CCC007F0CDC008F021
:10F7E000BCC001F0BDC002F0BEC003F0BFC004F059
:10F7F00022EC70F001C01EF002C01FF003C020F028
:10F8000004C021F0ADEC61F01AC0B8F01BC0B9F033
:10F810001CC0BAF01DC0BBF0CAC001F0CBC002F0E2
:10F82000CCC003F0CDC004F0000E056E000E066ED5
:10F83000200E076E410E086E55EC6EF001C0CAF046
:10F8400002C0CBF003C0CCF004C0CDF00001C04B2F
:10F85000C12BA851C05DC151800A356EA951800AE3
:10F860003558D8A036EF7CF038EF7CF0AEEF7BF067
:10F87000CAC001F0CBC002F0CCC003F0CDC004F090
:10F88000000E056E000E066EA00E076E400E086E8E
:10F8900022EC70F001C0BCF002C0BDF003C0BEF0AD
:10F8A00004C0BFF0B8C01AF0B9C01BF0BAC01CF059
:10F8B000BBC01DF0BCC01EF0BDC01FF0BEC020F01C
:10F8C000BFC021F0D1EC65F0D8B069EF7CF06BEFF0
:10F8D0007CF076EF7CF0000E0001BC6F000EBD6F77
:10F8E000000EBE6F000EBF6F9FEF7CF0B8C001F03E
:10F8F000B9C002F0BAC003F0BBC004F0BCC005F050
:10F90000BDC006F0BEC007F0BFC008F012EC63F047
:10F91000D8A08DEF7CF08FEF7CF09FEF7CF00001A2
:10F92000AEB195EF7CF097EF7CF09FEF7CF0000E8E
:10F93000BC6F000EBD6F000EBE6F000EBF6FC2C069
:10F9400001F0C3C002F0C4C003F0C5C004F0BCC0E5
:10F9500005F0BDC006F0BEC007F0BFC008F037EC30
:10F9600072F001C0B8F002C0B9F003C0BAF004C030
:10F97000BBF0B8C01AF0B9C01BF0BAC01CF0BBC0D5
:10F980001DF0000E056E000E066E200E076E410E75
:10F99000086EAAC001F0ABC002F0ACC003F0ADC06D
:10F9A00004F022EC70F001C01EF002C01FF003C092
:10F9B00020F004C021F0D1EC65F0D8A0E2EF7CF09B
:10F9C000E4EF7CF00DEF7DF00001C64BC72BAAC021
:10F9D00001F0ABC002F0ACC003F0ADC004F0000E0B
:10F9E000056E000E066E200E076E410E086E22ECAC
:10F9F00070F001C0AAF002C0ABF003C0ACF004C0CC
:10FA0000ADF0660E0001B619D8A409EF7DF00BEF3A
:10FA10007DF00DEF7DF0A84BA92BAAC0CAF0ABC0BA
:10FA2000CBF0ACC0CCF0ADC0CDF0650E0001B61986
:10FA3000D8B41DEF7DF01FEF7DF025EF7DF0C6C03F
:10FA4000A6F0C7C0A7F029EF7DF0000EA76F000E4B
:10FA5000A66F000EA56F000EA46F000EA36F000E20
:10FA6000A26F000EC16F000EC06F25EF7EF0B8C010
:10FA700001F0B9C002F0BAC003F0BBC004F0CAC0C4
:10FA800005F0CBC006F0CCC007F0CDC008F055ECB7
:10FA90006EF001C01AF002C01BF003C01CF004C0DD
:10FAA0001DF071EC6AF01AC0BCF01BC0BDF01CC0A8
:10FAB000BEF01DC0BFF0BCC001F0BDC002F0BEC0B2
:10FAC00003F0BFC004F053EC66F001C0AEF002C01A
:10FAD000AFF07CB86EEF7DF070EF7DF08EEF7DF0D3
:10FAE0000001AE51AF11D8A478EF7DF07AEF7DF030
:10FAF0008EEF7DF0670EB719D8A481EF7DF083EF0C
:10FB00007DF08EEF7DF0A7BF8AEF7DF088EF7DF06E
:10FB10008EEF7DF0A24BA32BD9EF7DF00001A45115
:10FB2000A511D8A496EF7DF098EF7DF0C2EF7DF09F
:10FB3000A7BF9FEF7DF09DEF7DF0C2EF7DF0000E3F
:10FB4000C825D96E010EC921DA6E2E0EDF6EC84BA4
:10FB5000C92BB407D8A0B507000EA56F010EA46F7E
:10FB6000C2EF7DF0000EC825D96E010EC921DA6EF4
:10FB7000300EDF6EC84BC92BB407D8A0B507A2075B
:10FB8000D8A0A307A251A311D8A4C9EF7DF0CBEF51
:10FB90007DF0B2EF7DF0000EC825D96E010EC921AF
:10FBA000DA6EAE51300FDF6EC84BC92BB407D8A048
:10FBB000B507B8C01AF0B9C01BF0BAC01CF0BBC082
:10FBC0001DF0CAC005F0CBC006F0CCC007F0CDC018
:10FBD00008F0BCC001F0BDC002F0BEC003F0BFC061
:10FBE00004F022EC70F001C01EF002C01FF003C050
:10FBF00020F004C021F0ADEC61F01AC0B8F01BC0D9
:10FC0000B9F01CC0BAF01DC0BBF0CAC001F0CBC037
:10FC100002F0CCC003F0CDC004F0000E056E000E63
:10FC2000066E200E076E410E086E55EC6EF001C098
:10FC3000CAF002C0CBF003C0CCF004C0CDF000018C
:10FC4000A607D8A0A707C04BC12BA851C05DC151C2
:10FC5000800A356EA951800A3558D8B032EF7EF04F
:10FC600034EF7EF042EF7EF0C9BF40EF7EF0C95125
:10FC700009E14B0EC85DD8A040EF7EF042EF7EF068
:10FC800037EF7DF0A451A511D8A449EF7EF04BEFDA
:10FC90007EF05CEF7EF07CA850EF7EF052EF7EF0BD
:10FCA0005CEF7EF0000EC825D96E010EC921DA6E18
:10FCB0002E0EDF6EC84BC92B000EC825D96E010E63
:10FCC000C921DA6E000EDF6E650EB619D8A46BEF8F
:10FCD0007EF06DEF7EF0C6EF79F0000EC16F4F0E33
:10FCE000C06F000EC025D96E010EC121DA6E000E64
:10FCF000DF6E000EB16F000EB06FC7BF84EF7EF0F5
:10FD000082EF7EF08CEF7EF0000EB16F010EB06FCF
:10FD1000C66DC71FD8B0C72B000EB36F020EB26FEF
:10FD2000BDEF7EF0C007D8A0C107000EC025D96E78
:10FD3000010EC121DA6EC6C001F0C7C002F0000E8C
:10FD4000046E0A0E036E67EC63F00150300FDF6E35
:10FD5000C6C001F0C7C002F0000E046E0A0E036EAA
:10FD600020EC64F001C0C6F002C0C7F00001B20789
:10FD7000D8A0B307B407D8A0B507C651C711D8A4F7
:10FD8000C4EF7EF0C6EF7EF092EF7EF0B3BFD3EF0C
:10FD90007EF0B35106E1B205D8B0D1EF7EF0D3EFDB
:10FDA0007EF092EF7EF0C007D8A0C107B051B1112C
:10FDB000D8A4DDEF7EF0DFEF7EF0E5EF7EF0000E01
:10FDC0009D6F2B0E9C6FE9EF7EF0000E9D6F2D0E48
:10FDD0009C6F000EC025D96E010EC121DA6E9CC049
:10FDE000DFFFB407D8A0B507C007D8A0C107BF0E72
:10FDF000356EFF0E366E3450376E386A3550372602
:10FE00003650382238500AE11A0E375CD8A00BEF72
:10FE10007FF00EEF7FF0010E0FEF7FF0000EA06F6E
:10FE2000A16BA051A111D8A418EF7FF01AEF7FF0B9
:10FE300020EF7FF0000E9F6F650E9E6F24EF7FF026
:10FE4000000E9F6F450E9E6F000EC025D96E010EED
:10FE5000C121DA6E9EC0DFFFB407D8A0B507000E3F
:10FE6000C825016E010EC921026E000EC025036E69
:10FE7000010EC121046E22EC62F0C6EF79F012008F
:10FE8000002D2D2D2D2D2D2D2D2D2D2D2D2D2D2DCF
:10FE90002D2D2D2D2D2D2D2D2D2D2D2D2D2D2D2D92
:10FEA0002D2D2D2D2D2D2D2D2D2D2D2D2D2D2D2D82
:10FEB0002D2D2D2D2D2D2D2D2D2D0D0A006368722C
:10FEC000203D20253032582C2073687274203D204C
:10FED000253034582C206C6E67203D202530345856
:10FEE000253034580D0A00636872203D2025632CAC
:10FEF0002073687274203D2025642C206C6E67206E
:10FF00003D20256C642C20666C743D25660D0A002E
:10FF1000636872203D20253032582C20736872743B
:10FF2000203D20253034582C206C6E67203D202544
:10FF30003038580D0A0025307820253078202530BB
:10FF400078202530782025307820253078202530FD
:10FF500078202530780D0A005072696E74696E67DA
:10FF6000205354797065206669656C6473206174F0
:10FF700020282564293A0D0A005072696E74696E52
:10FF800067205554797065206669656C64732061DB
:10FF90007420282564293A0D0A00456E7465722084
:10FFA000612073746174656D656E742062656C6F39
:10FFB000773A0A0D000A0D5265636569766564201B
:10FFC000737472696E673A200042797465206174B7
:10FFD00020282564293A0025303258483A20004923
:10FFE0004E46004E414E00696E66006E616E006CBA
:0FFFF00058006C64006C66006C69006C7800004F
:020000040020DA
:08000000FFFFFFFFFFFFFFFF00
:020000040030CA
:0E000000FF011F1FFF8385FF0FC00FE00F40A1
:00000001FF
