:020000040000FA
:0400000062EF61F05A
:10C020001200710E026EFE0E036EA8EC62F012009A
:10C03000000EC26E0C0EC16E9368800E946E9268F4
:10C04000000E956E000E966E1200016E29EF60F0E4
:10C050000400ACA22EEF60F030EF60F028EF60F04B
:10C0600001C0ADFF120036EF60F004009EAA3BEF66
:10C0700060F03DEF60F035EF60F0AECF01F00150C1
:10C080001200B896190EAF6E000EB06E000EAC6EB8
:10C09000AC84AC8A000EAB6EAB88AB8EAE50AE50AB
:10C0A000120001500302F3CF05F0F4CF06F0015067
:10C0B0000402F350062602500302F350062605C080
:10C0C00001F006C002F01200000E046E000E036EB6
:10C0D00071EF60F0C80E04000400E82EFCD7034A9C
:10C0E000042A0150035C02500458D8A07AEF60F093
:10C0F0007CEF60F06AEF60F0120001C003F002C054
:10C1000004F085EF60F0014A022A01C0D9FF02C0A5
:10C11000DAFFDF50D8A48FEF60F091EF60F083EF8B
:10C1200060F00350015C016E04500258026E120070
:10C13000ABB49DEF60F09FEF60F0A6EF60F0ABA2B4
:10C14000A4EF60F0A6EF60F0A8EF60F0AB98AB88CA
:10C150009EAAADEF60F0AFEF60F0B2EF60F0010EBD
:10C16000B3EF60F0000E1200D00E036EFF0E046EEF
:10C1700001C005F002C006F0035005260450062257
:10C1800006500AE10A0E055CD8A0C9EF60F0CCEFBA
:10C1900060F0010ECDEF60F0000E016E026A120039
:10C1A0000150021003100410D8B4D9EF60F0DBEF97
:10C1B00060F0E3EF60F0000E011A000E021A000EAC
:10C1C000031A800E041A01C001F002C002F003C07D
:10C1D00003F004C004F01200BF0E036EFF0E046EE5
:10C1E00001C005F002C006F00350052604500622E7
:10C1F00006500AE11A0E055CD8A001EF61F004EFC9
:10C2000061F0010E05EF61F0000E016E026A12008E
:10C210009F0E036EFF0E046E01C005F002C006F013
:10C22000035005260450062206500AE11A0E055C4A
:10C23000D8A01DEF61F020EF61F0010E21EF61F059
:10C24000000E016E026A12009F0E036EFF0E046E56
:10C25000200E0110056E000E0210066E035005261A
:10C260000450062206500AE11A0E055CD8A03BEFE6
:10C2700061F03EEF61F0010E3FEF61F0000E016EE4
:10C28000026A120014BE4FEF61F0145006E113046D
:10C29000D8B04DEF61F04FEF61F05DEF61F013C08A
:10C2A00015F014C016F0151E161E154A162A15C0D4
:10C2B00013F016C014F061EF61F013C013F014C056
:10C2C00014F0120002EE00F0C80EEE6AE806FDE17E
:10C2D00001EE00F0500EEE6AE806FDE10001FE6B93
:10C2E000FD6BFC6BFB6BFA6BF96B7D6A7C6A7E6A9B
:10C2F00000EEF0F0090EEE6AE806FDE1000EF86EC1
:10C3000000019CEF69F0000E106E000E0F6E94EFAE
:10C3100061F00EC001F0026A0CC003F00DC004F021
:10C320007AEC64F00F4A102A0F500A24D96E10508C
:10C330000B20DA6EDF500E6E0E50D8A4A2EF61F023
:10C34000A4EF61F089EF61F01200000E1E1A000EDA
:10C350001F1A000E201A800E211A1AC001F01BC0ED
:10C3600002F01CC003F01DC004F01EC005F01FC089
:10C3700006F020C007F021C008F02FEC72F001C0D9
:10C380001AF002C01BF003C01CF004C01DF0120024
:10C39000010E076E200E01180210D8B4D2EF61F022
:10C3A000D4EF61F0EDEF61F0F70E036EFF0E046E57
:10C3B00001C005F002C006F0035005260450062215
:10C3C000065009E1050E055CD8A0E9EF61F0EBEF3E
:10C3D00061F0EDEF61F0000E076E07C001F0026A38
:10C3E0001200D80E0001E86F000EE96FD4C0EAF029
:10C3F000D5C0EBF0000EED6F000EEC6F000EEF6F8E
:10C40000000EEE6FEA0ECE6F000ECF6FD6C0D0F0EA
:10C41000D7C0D1F0E80ED26F000ED36FD9EC62F026
:10C420000001EC51D425D96EED51D521DA6E000E04
:10C43000DF6E120003C007F004C008F001C009F06D
:10C4400002C00AF00750056E0850066E074A082A17
:10C4500005C0F6FF06C0F7FF000EF86E09C0D9FF51
:10C460000AC0DAFF094A0A2A0F0EF76403D008004F
:10C47000F55005D0F6CFE1FFF7CFE2FFE750DF6ED2
:10C48000DF50D8A446EF62F048EF62F022EF62F08E
:10C4900012009F0E096EFF0E0A6E07C00BF008C057
:10C4A0000CF009500B260A500C220C500AE11A0E0F
:10C4B0000B5CD8A05EEF62F061EF62F0010E62EFFC
:10C4C00062F0000E0D6E0E6A0D500E10D8B46BEFB8
:10C4D00062F06DEF62F073EF62F05F0E0714076EAB
:10C4E000086A77EF62F007C007F008C008F0120092
:10C4F000BF0E096EFF0E0A6E07C00BF008C00CF0ED
:10C5000009500B260A500C220C500AE11A0E0B5C43
:10C51000D8A08DEF62F090EF62F0010E91EF62F023
:10C52000000E0D6E0E6A0D500E10D8B49AEF62F028
:10C530009CEF62F0A3EF62F0200E0710076E085028
:10C54000086EA7EF62F007C007F008C008F01200FD
:10C55000BFEF62F002C0F6FF03C0F7FF000EF86EF7
:10C560000F0EF76403D00800F55005D0F6CFE1FFB9
:10C57000F7CFE2FFE75025EC60F0024A032A02C041
:10C58000F6FF03C0F7FF000EF86E0F0EF76403D03E
:10C590000800F55005D0F6CFE1FFF7CFE2FFE750F6
:10C5A0000009D8A4D6EF62F0D8EF62F0AAEF62F0EB
:10C5B0001200D0C057F0D1C058F0000E0001FA6F41
:10C5C000000EF96FF7EF62F0CEC043F0CFC044F039
:10C5D000570E456E000E466ED2C047F0D3C048F0ED
:10C5E0008FEC74F043500001F9274450FA2357C0F0
:10C5F000F6FF58C0F7FF0800F5500009D8A403EF74
:10C6000063F005EF63F0E4EF62F0F9C0CEF0FAC03A
:10C61000CFF01200000E0114096E000E02140A6E13
:10C62000800E03140B6E7F0E04140C6E09500A105A
:10C630000B100C10D8A41FEF63F021EF63F029EF6B
:10C6400063F0000E016E000E026E000E036E000E0F
:10C65000046E000E0514096E000E06140A6E800E9C
:10C6600007140B6E7F0E08140C6E09500A100B1085
:10C670000C10D8A43EEF63F040EF63F048EF63F096
:10C68000000E056E000E066E000E076E000E086EA0
:10C69000055001180FE1065002180CE1075003186D
:10C6A00009E108500418D8B458EF63F05AEF63F06A
:10C6B0005DEF63F0D8905EEF63F0D8801200000E5B
:10C6C000066E02BE68EF63F066EF63F06EEF63F034
:10C6D000016C021ED8B0022A010E066E04BE75EF70
:10C6E00063F073EF63F079EF63F0036C041ED8B06E
:10C6F000042A03500410D8B480EF63F082EF63F093
:10C70000A6EF63F0010E056E8AEF63F0D890033652
:10C710000436052A04AE8FEF63F091EF63F086EFE5
:10C7200063F00350015C04500258D8A09AEF63F004
:10C730009CEF63F0A0EF63F00350015E0450025AD7
:10C74000D89004320332052E91EF63F00650D8B42E
:10C75000ACEF63F0AEEF63F0B2EF63F0016C021E7A
:10C76000D8B0022A01C001F002C002F012007CA081
:10C77000BCEF63F0BEEF63F0C8EF63F013C00AF0E4
:10C7800014C00BF011C00CF012C00DF083EC61F07E
:10C7900016BECDEF63F0CFEF63F0D5EF63F015C0B9
:10C7A0001AF016C01BF0D9EF63F0000E1B6E000EDE
:10C7B0001A6E000E196E000E186EEBEF63F0000E8D
:10C7C000026E200E016E11C003F012C004F07AEC6C
:10C7D00064F0184A192A1A50185C1950800A176E0A
:10C7E0001B50800A1758D8A0F8EF63F0FAEF63F0F7
:10C7F000DFEF63F07CB0FFEF63F001EF64F00BEF6D
:10C8000064F013C00AF014C00BF011C00CF012C099
:10C810000DF083EC61F013C001F014C002F07DEC68
:10C8200060F01A500124116E1B500220126E12008B
:10C83000000E066E04BE21EF64F01FEF64F027EFD8
:10C8400064F0036C041ED8B0042A010E066E02BE0A
:10C850002EEF64F02CEF64F034EF64F0016C021EF4
:10C86000D8B0022A010E061A000E086E000E076EDE
:10C8700003500410D8B43FEF64F041EF64F069EF67
:10C8800064F0010E056E49EF64F0D890033604366B
:10C89000052A04AE4EEF64F050EF64F045EF64F00B
:10C8A000D890073608360350015C04500258D8A0CF
:10C8B0005CEF64F05EEF64F063EF64F00350015EE0
:10C8C0000450025A0780D89004320332052E50EFEC
:10C8D00064F00650D8B46FEF64F071EF64F075EF58
:10C8E00064F0076C081ED8B0082A07C001F008C021
:10C8F00002F0120003500410D8B481EF64F083EF0B
:10C9000064F08CEF64F003500410D8A48AEF64F054
:10C910008CEF64F091EF64F0015010EC60F0DEEF0A
:10C9200064F020EE04F00350D9260450DA22DE50E1
:10C93000DE10D8B49EEF64F0A0EF64F0BBEF64F0BB
:10C9400020EE04F00350D9260450DA2210EE02F053
:10C950000350E1260450E222DE50E65CE650800AF5
:10C96000096EDE50800A0958D8B0B9EF64F0BBEF09
:10C9700064F0DEEF64F020EE02F00350D92604509C
:10C98000DA22DECF05F0DDCF06F003C0D9FF04C008
:10C99000DAFFDECF07F0DDCF08F005500724D96EAF
:10C9A00006500820DA6E01C0DFFF20EE02F00350CF
:10C9B000D9260450DA22DE2A000EDD221200000100
:10C9C000FB51FC11D8A4E7EF64F0E9EF64F0EFEF5E
:10C9D00064F0FBC010F0FCC011F0F5EF64F0FF0E46
:10C9E000FB25106EFF0EFC21116E7CA0FAEF64F0A7
:10C9F000FCEF64F005EF65F00CC001F0026A0AC0BC
:10CA000003F00BC004F07AEC64F011BE0AEF65F09D
:10CA10000CEF65F00EEF65F012EF65F0000E116E91
:10CA2000000E106E000E0F6E000E0E6E24EF65F0FD
:10CA3000000E026E200E016E0AC003F00BC004F05F
:10CA40007AEC64F00E4A0F2A10500E5C0F50800AE8
:10CA50000D6E1150800A0D58D8A031EF65F033EFFC
:10CA600065F018EF65F07CB038EF65F03AEF65F0EF
:10CA700043EF65F00CC001F0026A0AC003F00BC07E
:10CA800004F07AEC64F0010E0E240A6E000E0F2002
:10CA90000B6E1200F4C00BF0F5C00CF0F6C00DF0F8
:10CAA000F7C00EF001C00BF002C00CF003C00DF097
:10CAB00004C00EF00BC005F00CC006F00DC007F06E
:10CAC0000EC008F0180E6AEF65F0D89008320732F1
:10CAD00006320532E82E65EF65F00550096E0A6AE8
:10CAE00009500A10D8A477EF65F079EF65F099EF57
:10CAF00065F0D8900B34056E0C34066E0D34076E5D
:10CB00000E34086E0550061007100810D8A48BEFDD
:10CB100065F08DEF65F093EF65F0000E026E020E8A
:10CB2000016EC8EF65F0000E026E030E016EC8EFD5
:10CB300065F009280A10D8A4A0EF65F0A2EF65F00F
:10CB4000C4EF65F00BC005F00CC006F00DC007F097
:10CB50000EC008F0090ED89005360636073608369E
:10CB6000E82EABEF65F00550061007100810D8B49A
:10CB7000BCEF65F0BFEF65F0010EC0EF65F0000E91
:10CB8000016E026AC8EF65F0000E026E040E016EBF
:10CB90001200000E1A14226E000E1B14236E800E5B
:10CBA0001C14246E7F0E1D14256E22502310241099
:10CBB0002510D8A4DEEF65F0E0EF65F0E8EF65F052
:10CBC000000E1A6E000E1B6E000E1C6E000E1D6E07
:10CBD000000E1E14226E000E1F14236E800E2014F1
:10CBE000246E7F0E2114256E225023102410251050
:10CBF000D8A4FDEF65F0FFEF65F007EF66F0000EDB
:10CC00001E6E000E1F6E000E206E000E216E1DAEF9
:10CC10000CEF66F00EEF66F017EF66F01A6C1B1E55
:10CC2000D8B01B2A1C1ED8B01C2A800E1D5621AE5F
:10CC30001CEF66F01EEF66F027EF66F01E6C1F1EFD
:10CC4000D8B01F2A201ED8B0202A800E2156000EF0
:10CC50001A1A000E1B1A000E1C1A800E1D1A000E46
:10CC60001E1A000E1F1A000E201A800E211A1E50C6
:10CC70001A5C1F501B5820501C5821501D58D8B00A
:10CC800044EF66F046EF66F049EF66F0D8904AEF61
:10CC900066F0D8801200033404340A6E0A50D8A417
:10CCA00054EF66F056EF66F060EF66F0000E016E2E
:10CCB000000E026E000E036E000E046ECDEF66F0E5
:10CCC00001C005F002C006F003C007F004C008F080
:10CCD000200E70EF66F0D890083207320632053227
:10CCE000E82E6BEF66F00550096E038EFF0E0116FD
:10CCF000FF0E0216FF0E0316000E0416960E0A5EB5
:10CD00000ABE87EF66F085EF66F09DEF66F00A5089
:10CD1000800A970FD8B08FEF66F091EF66F093EF2F
:10CD200066F056EF66F0D8900432033202320132D8
:10CD30000A3E93EF66F0B5EF66F01F0E0A64A3EFAC
:10CD400066F0A5EF66F0ADEF66F056EF66F0D890AE
:10CD500001360236033604360A060A50D8A4B3EF69
:10CD600066F0B5EF66F0A7EF66F00950D8B4BBEFF8
:10CD700066F0BDEF66F0C5EF66F0041E031E021EEE
:10CD8000016C000E02220322042201C001F002C045
:10CD900002F003C003F004C004F0120001C008F068
:10CDA00002C009F003C00AF004C00BF00506D8A0C9
:10CDB0000606052806E10628D8A4E1EF66F0E3EFB1
:10CDC00066F0F0EF66F0000E026E000E016E5DEF91
:10CDD00067F0084A092A0A4A0B2A0506D8A006065F
:10CDE00008C0F6FF09C0F7FF000EF86E0F0EF764DB
:10CDF00003D00800F55005D0F6CFE1FFF7CFE2FFF2
:10CE0000E7500009D8B407EF67F009EF67F040EF8B
:10CE100067F00AC0F6FF0BC0F7FF0800F5500009E5
:10CE2000D8B415EF67F017EF67F040EF67F00550E3
:10CE30000610D8B41EEF67F020EF67F040EF67F000
:10CE40000AC0F6FF0BC0F7FF0800F5CF07F008C0D7
:10CE5000F6FF09C0F7FF000EF86E0F0EF76403D05F
:10CE60000800F55005D0F6CFE1FFF7CFE2FFE7501D
:10CE70000718D8B43EEF67F040EF67F0E9EF66F0CF
:10CE800008C0F6FF09C0F7FF000EF86E0F0EF7643A
:10CE900003D00800F55005D0F6CFE1FFF7CFE2FF51
:10CEA000E750076E0AC0F6FF0BC0F7FF0800F55009
:10CEB000075C016E026AD8A002061200000E126E14
:10CEC00008BE67EF67F065EF67F079EF67F0081E5F
:10CED000071E061E051E041E031E021E016C000E08
:10CEE0000222032204220522062207220822010E22
:10CEF000126E10BE80EF67F07EEF67F090EF67F084
:10CF0000101E0F1E0E1E0D1E0C1E0B1E0A1E096C7F
:10CF1000000E0A220B220C220D220E220F221022BA
:10CF200009500A100B100C100D100E100F101010DD
:10CF3000D8B49DEF67F09FEF67F0E7EF67F0010E61
:10CF4000116EADEF67F0D89009360A360B360C3605
:10CF50000D360E360F361036112A10AEB2EF67F0CE
:10CF6000B4EF67F0A3EF67F00950015C0A50025874
:10CF70000B5003580C5004580D5005580E500658CD
:10CF80000F50075810500858D8A0C9EF67F0CBEFE2
:10CF900067F0DBEF67F00950015E0A50025A0B5050
:10CFA000035A0C50045A0D50055A0E50065A0F5091
:10CFB000075A1050085AD89010320F320E320D32E4
:10CFC0000C320B320A320932112EB4EF67F01250D4
:10CFD000D8B4EDEF67F0EFEF67F0FFEF67F0081EF2
:10CFE000071E061E051E041E031E021E016C000EF7
:10CFF000022203220422052206220722082201C05F
:10D0000001F002C002F003C003F004C004F005C048
:10D0100005F006C006F007C007F008C008F01200CF
:10D02000000E126E10BE19EF68F017EF68F02BEFCC
:10D0300068F0101E0F1E0E1E0D1E0C1E0B1E0A1E6B
:10D04000096C000E0A220B220C220D220E220F2246
:10D050001022010E126E08BE32EF68F030EF68F059
:10D0600044EF68F0081E071E061E051E041E031E60
:10D07000021E016C000E0222032204220522062257
:10D0800007220822010E121A20EE13F0070EDE6AA4
:10D09000E806FDE209500A100B100C100D100E10DE
:10D0A0000F101010D8B457EF68F059EF68F0ABEFDD
:10D0B00068F0010E116E67EF68F0D89009360A36F5
:10D0C0000B360C360D360E360F361036112A10AED2
:10D0D0006CEF68F06EEF68F05DEF68F0D890133693
:10D0E0001436153616361736183619361A360950CC
:10D0F000015C0A5002580B5003580C5004580D5054
:10D1000005580E5006580F50075810500858D8A010
:10D110008CEF68F08EEF68F09FEF68F00950015EC9
:10D120000A50025A0B50035A0C50045A0D50055A1B
:10D130000E50065A0F50075A1050085A1380D890B4
:10D1400010320F320E320D320C320B320A320932EB
:10D15000112E6EEF68F01250D8B4B1EF68F0B3EF53
:10D1600068F0C3EF68F01A1E191E181E171E161E4F
:10D17000151E141E136C000E1422152216221722DF
:10D18000182219221A2213C001F014C002F015C08F
:10D1900003F016C004F017C005F018C006F019C05F
:10D1A00007F01AC008F01200000E166E000E156E81
:10D1B000000E0F6E000E0E6EE0EF68F0084A092AAE
:10D1C000010E146E08C0F6FF09C0F7FF0800F55005
:10D1D000200AD8B4EEEF68F0F0EF68F00DEF69F0D8
:10D1E000F70E0A6EFF0E0B6E08C0F6FF09C0F7FFC0
:10D1F0000800F5500C6E0D6A0A500C260B500D22DB
:10D200000D5009E1050E0C5CD8A009EF69F00BEF99
:10D2100069F00DEF69F0000E146E14C010F0116A81
:10D2200010501110D8A417EF69F019EF69F0DEEF74
:10D2300068F023EF69F0000E0F6E010E0E6E084AC3
:10D24000092A58EF69F008C0F6FF09C0F7FF080087
:10D25000F5500A6E0B6A0B50000AD8B432EF69F031
:10D2600058EF69F00A502B0AD8B41FEF69F0060A8C
:10D27000D8B41BEF69F058EF69F015C001F016C083
:10D2800002F0000E046E0A0E036E51EC60F008C04E
:10D29000F6FF09C0F7FF0800F550015E000E025AC4
:10D2A000300E0124156E000E0220166E1FEF69F07D
:10D2B000D00E0A6EFF0E0B6E08C0F6FF09C0F7FF16
:10D2C0000800F5500C6E0D6A0A500C260B500D220A
:10D2D0000D500AE10A0E0C5CD8A071EF69F074EFF2
:10D2E00069F0010E75EF69F0000E126E136A1250AC
:10D2F0001310D8A47EEF69F080EF69F03DEF69F07C
:10D300000E500F10D8A487EF69F089EF69F097EFFE
:10D3100069F015C00AF016C00BF00A1E0B1E0A4A6F
:10D320000B2A0AC008F00BC009F09BEF69F015C08A
:10D3300008F016C009F0120018EC60F041EC60F043
:10D34000000E0001D46F020ED56FAD0ED66FFE0E2B
:10D35000D76FF1EC61F0000E026E020E036EA8ECC6
:10D3600062F0610E206E200E5C6E000E5D6E000E8F
:10D370005B6E000E5A6E000E026E0A0E016E64ECB9
:10D3800060F098EC60F00009D8B4C9EF69F0CBEF19
:10D3900069F0BBEF69F033EC60F05CC0D9FF5DC0B1
:10D3A000DAFFDF6E5C4A5D2A5A4A5B2A5BBEE2EF17
:10D3B00069F05B5009E10F0E5A5CD8A0E2EF69F00A
:10D3C000E4EF69F0BBEF69F0200E5C6E000E5D6E5D
:10D3D0002AEF6AF05CC0D9FF5DC0DAFF400EDF645F
:10D3E000F4EF69F0F6EF69F00AEF6AF05CC0D9FF7C
:10D3F0005DC0DAFF5B0EDF6000EF6AF002EF6AF0FB
:10D400000AEF6AF05CC0D9FF5DC0DAFF200EDF26AC
:10D4100028EF6AF05CC0D9FF5DC0DAFF600EDF6400
:10D4200014EF6AF016EF6AF028EF6AF05CC0D9FFDB
:10D430005DC0DAFF7B0EDF6020EF6AF022EF6AF05A
:10D4400028EF6AF05CC0D9FF5DC0DAFF200EDF5E16
:10D450005C4A5D2A5CC0D9FF5DC0DAFFDF50D8A40A
:10D4600034EF6AF036EF6AF0EAEF69F0200E5C6E96
:10D47000000E5D6E000E0001D46F020ED56FB50E6A
:10D48000D66FFF0ED76FF1EC61F0000E026E020E48
:10D49000036EA8EC62F05CC002F05DC003F0A8EC83
:10D4A00062F0000E0001D46F020ED56FAA0ED66F87
:10D4B000FE0ED76FF1EC61F0000E026E020E036EED
:10D4C000A8EC62F011EC60F00400A0EF69F000EF4E
:10D4D00000F0F0C02AF0F1C02BF0F2C02CF0F3C045
:10D4E0002DF01AC02AF01BC02BF01CC02CF01DC060
:10D4F0002DF0810E1E6EFF0E1F6E2AC020F02BC075
:10D5000021F02CC022F02DC023F0180E8DEF6AF010
:10D51000D8902332223221322032E82E88EF6AF06E
:10D5200020501E24286E000E1F20296E29BEA2EF57
:10D530006AF0295009E1170E285CD8A0A2EF6AF022
:10D54000A4EF6AF0AEEF6AF01AC01AF01BC01BF02D
:10D550001CC01CF01DC01DF071EF6BF029BEB3EFB5
:10D560006AF0B5EF6AF025EF6BF028C01EF0FF0EF1
:10D570001F6EFF0E206E7F0E216E000E226E1E6645
:10D58000C4EF6AF0CCEF6AF022342232213220322A
:10D590001F321E2EBFEF6AF01FC024F020C025F0FE
:10D5A00021C026F022C027F024502A141E6E2550D8
:10D5B0002B141F6E26502C14206E27502D14216E14
:10D5C0001E501F1020102110D8A4E9EF6AF0EBEFD5
:10D5D0006AF0EDEF6AF0A4EF6AF02AC01EF02BC0EB
:10D5E0001FF02CC020F02DC021F0200EFDEF6AF0BE
:10D5F000D890213220321F321E32E82EF8EF6AF026
:10D600001E501F1020102110D8B409EF6BF00BEF43
:10D610006BF013EF6BF024502A2625502B22265056
:10D620002C2227502D22241C1E6E251C1F6E261C0A
:10D63000206E271C216E1E502A161F502B162050BC
:10D640002C1621502D1669EF6BF02AC01EF02BC04E
:10D650001FF02CC020F02DC021F0200E35EF6BF014
:10D66000D890213220321F321E32E82E30EF6BF07C
:10D670001E501F1020102110D8A441EF6BF043EF73
:10D680006BF04DEF6BF0000E2A6E000E2B6E000E4D
:10D690002C6E000E2D6E69EF6BF0D8902A341E6E42
:10D6A0002B341F6E2C34206E2D34216E1E501F1013
:10D6B00020102110D8B45FEF6BF061EF6BF069EFD1
:10D6C0006BF0000E2A6E000E2B6E800E2C6EBF0EBD
:10D6D0002D6E2AC01AF02BC01BF02CC01CF02DC0E0
:10D6E0001DF012000001FEBF78EF6BF07AEF6BF0D7
:10D6F0007BEF6BF07C92FEBF88EF6BF0FE5106E192
:10D70000FD05D8B086EF6BF088EF6BF08EEF6BF015
:10D71000000E346E010E336E92EF6BF0FDC033F0ED
:10D72000FEC034F0FBC035F0FCC036F07CA89BEFA7
:10D730006BF09DEF6BF0A1EF6BF0FE0E3526FF0E48
:10D7400036221EC037F01FC038F020C039F021C08B
:10D750003AF022C03BF023C03CF024C03DF025C08D
:10D760003EF0000E406E4F0E3F6E000E01014F6FF7
:10D770006DEF6CF03F06D8A040060F0E3714416ED7
:10D78000426A42BECDEF6BF0425009E10A0E415CA5
:10D79000D8A0CDEF6BF0CFEF6BF0D7EF6BF0570E5B
:10D7A0004124416E000E4220426EDDEF6BF0300EE0
:10D7B0004124416E000E4220426EBF0E276EFF0EC6
:10D7C000286E2650296E2A6A2750292628502A2298
:10D7D0002A500AE11A0E295CD8A0F1EF6BF0F4EFA1
:10D7E0006BF0010EF5EF6BF0000E2F6E306A2F50CC
:10D7F0003010D8B4FEEF6BF000EF6CF030EF6CF04F
:10D800009F0E276EFF0E286E200E4110296E000E0F
:10D8100042102A6E2750292628502A222A500AE12F
:10D820001A0E295CD8A017EF6CF01AEF6CF0010EFD
:10D830001BEF6CF0000E316E326A31503210D8B4EA
:10D8400024EF6CF026EF6CF030EF6CF041C007F085
:10D8500042C008F049EC62F007C041F008C042F055
:10D86000000E3F24D96E010E4020DA6E41C0DFFF6A
:10D870003306D8A034063506D8A0360637C027F0C0
:10D8800038C028F039C029F03AC02AF03BC02BF04C
:10D890003CC02CF03DC02DF03EC02EF0050E5AEFDE
:10D8A0006CF0D8902E322D322C322B322A32293283
:10D8B00028322732E82E51EF6CF027C037F028C00D
:10D8C00038F029C039F02AC03AF02BC03BF02CC008
:10D8D0003CF02DC03DF02EC03EF040BE79EF6CF024
:10D8E000405009E1020E3F5CD8A079EF6CF07BEF6D
:10D8F0006CF0ABEF6CF03750381039103A103B1029
:10D900003C103D103E10D8A488EF6CF08AEF6CF00C
:10D91000BAEF6BF034BE97EF6CF0345006E133048D
:10D92000D8B095EF6CF097EF6CF0BAEF6BF036BEB5
:10D93000A2EF6CF0365008E13504D8A0A2EF6CF0ED
:10D94000A4EF6CF0ABEF6CF07CB2A9EF6CF0ABEF36
:10D950006CF0BAEF6BF07CA8B0EF6CF0B2EF6CF04B
:10D96000C8EF6CF03F06D8A04006000E3F24D96EE9
:10D97000010E4020DA6E26C0DFFF3F06D8A0400629
:10D98000000E3F24D96E010E4020DA6E300EDF6E9D
:10D990001CC011F01DC012F0000E3F24136E010ECA
:10D9A0004020146E35C015F036C016F0B7EC63F0A9
:10D9B00011C01CF012C01DF012001EC036F01FC0B6
:10D9C00037F020C038F021C039F022C03AF023C02F
:10D9D0003BF024C03CF025C03DF03DBEF2EF6CF0C2
:10D9E000F5EF6CF0010EF6EF6CF0000E346E356A58
:10D9F00034503510D8B4FFEF6CF001EF6DF011EF3B
:10DA00006DF03D1E3C1E3B1E3A1E391E381E371E51
:10DA1000366C000E3722382239223A223B223C2231
:10DA20003D220001FEBF17EF6DF019EF6DF01AEF08
:10DA30006DF07C92FEBF27EF6DF0FE5106E1FD0513
:10DA4000D8B025EF6DF027EF6DF02DEF6DF0000EE3
:10DA5000316E010E306E31EF6DF0FDC030F0FEC062
:10DA600031F0FBC032F0FCC033F034503510D8A494
:10DA70003CEF6DF03EEF6DF045EF6DF07CA443EFB1
:10DA80006DF045EF6DF048EF6DF03206D8A033062B
:10DA9000000E3F6E4F0E3E6E000E01014F6FCDEF38
:10DAA0006DF03E06D8A03F06000E3E24D96E010E52
:10DAB0003F20DA6E36C001F037C002F038C003F004
:10DAC00039C004F03AC005F03BC006F03CC007F096
:10DAD0003DC008F00A0E096E000E0A6E000E0B6EB5
:10DAE000000E0C6E000E0D6E000E0E6E000E0F6E10
:10DAF000000E106E5EEC67F001C026F002C027F049
:10DB000003C028F004C029F005C02AF006C02BF09D
:10DB100007C02CF008C02DF026C013F028C014F068
:10DB200042EC61F01350300FDF6E3006D8A03106A2
:10DB30003206D8A0330636C001F037C002F038C034
:10DB400003F039C004F03AC005F03BC006F03CC019
:10DB500007F03DC008F00A0E096E000E0A6E000EB6
:10DB60000B6E000E0C6E000E0D6E000E0E6E000E93
:10DB70000F6E000E106E10EC68F001C036F002C09F
:10DB800037F003C038F004C039F005C03AF006C0E1
:10DB90003BF007C03CF008C03DF03FBED8EF6DF051
:10DBA0003F5008E13E04D8A0D8EF6DF0DAEF6DF0F9
:10DBB0000AEF6EF036503710381039103A103B101B
:10DBC0003C103D10D8A4E7EF6DF0E9EF6DF051EF98
:10DBD0006DF031BEF6EF6DF0315006E13004D8B093
:10DBE000F4EF6DF0F6EF6DF051EF6DF033BE01EF35
:10DBF0006EF0335008E13204D8A001EF6EF003EF6D
:10DC00006EF00AEF6EF07CB208EF6EF00AEF6EF085
:10DC100051EF6DF034503510D8A411EF6EF013EFC2
:10DC20006EF01AEF6EF07CA418EF6EF01AEF6EF043
:10DC300038EF6EF03E06D8A03F0634503510D8A419
:10DC400024EF6EF026EF6EF02CEF6EF0000E2F6ECC
:10DC50002B0E2E6E30EF6EF0000E2F6E2D0E2E6EF0
:10DC6000000E3E24D96E010E3F20DA6E2EC0DFFF7B
:10DC70001CC011F01DC012F0000E3E24136E010EE8
:10DC80003F20146E32C015F033C016F0B7EC63F0CD
:10DC900011C01CF012C01DF012000450800B116E58
:10DCA00004500424186E03AE58EF6EF05AEF6EF075
:10DCB0005BEF6EF018801850D8B461EF6EF063EF30
:10DCC0006EF078EF6EF01828D8A469EF6EF06BEF65
:10DCD0006EF073EF6EF0000E016E000E026E000E1D
:10DCE000036E000E046E038E000E046E80EF6EF065
:10DCF000000E016E000E026E000E036E000E046E2A
:10DD00000850800B111A08500824196E07AE8BEFCB
:10DD10006EF08DEF6EF08EEF6EF019801950D8B462
:10DD200094EF6EF096EF6EF0ABEF6EF01928D8A47A
:10DD30009CEF6EF09EEF6EF0A6EF6EF0000E056E9B
:10DD4000000E066E000E076E000E086E078E000EA7
:10DD5000086EB3EF6EF0000E056E000E066E000E3C
:10DD6000076E000E086E0550061007100810D8A4A4
:10DD7000BCEF6EF0BEEF6EF0D6EF6EF0000E016EEF
:10DD8000000E026E000E036E000E046E800E031273
:10DD90007F0E04121150041201C001F002C002F003
:10DDA00003C003F004C004F019EF70F01850D8A4B9
:10DDB000DCEF6EF0DEEF6EF0E8EF6EF0000E016E5D
:10DDC000000E026E000E036E000E046E19EF70F06E
:10DDD000195018C009F00A6A095E000E0A5A7F0E2F
:10DDE0000924126E000E0A20136E01C00DF002C04D
:10DDF0000EF003C00FF004C010F0000E016E000E14
:10DE0000026E000E036E000E046E000E146E000E05
:10DE1000156E000E166E000E176E000E196E49EF8D
:10DE20006FF01950D8B417EF6FF019EF6FF030EFB3
:10DE30006FF0D8900D360E360F361036D89001366A
:10DE400002360336043617AE28EF6FF02AEF6FF074
:10DE50002BEF6FF00180D890143615361636173632
:10DE600005500D5C06500E5807500F5808501058BA
:10DE7000D8A03DEF6FF03FEF6FF048EF6FF0178CD9
:10DE800005500D5E06500E5A07500F5A0850105A92
:10DE9000192A190E19644FEF6FF051EF6FF011EF5F
:10DEA0006FF00D500E100F101010D8B45AEF6FF025
:10DEB0005CEF6FF074EF6FF0148074EF6FF0D89038
:10DEC000013602360336043617AE69EF6FF06BEF9A
:10DED0006FF06CEF6FF00180D8901436153616365F
:10DEE00017361206D8A0130603AE79EF6FF07BEF5A
:10DEF0006FF05FEF6FF0000E196E17AE82EF6FF0EC
:10DF000084EF6FF0A8EF6FF0FF0E1414096EFF0E90
:10DF100015140A6EFF0E16140B6E7F0E17140C6E7E
:10DF200009500A100B100C10D8B499EF6FF09BEF4A
:10DF30006FF09FEF6FF0010E196EA8EF6FF001A068
:10DF4000A4EF6FF0A6EF6FF0A8EF6FF09BEF6FF00C
:10DF50001950D8B4AEEF6FF0B0EF6FF0D4EF6FF0B0
:10DF6000010E0126000E02220322042204A0BBEFB0
:10DF70006FF0BDEF6FF0D4EF6FF001C009F002C099
:10DF80000AF003C00BF004C00CF00C340C320B325E
:10DF90000A32093209C001F00AC002F00BC003F0D6
:10DFA0000CC004F0124A132A13BEDFEF6FF01350B7
:10DFB00008E11228D8A0DFEF6FF0E1EF6FF0ECEF8F
:10DFC0006FF0000E136E1268000E016E000E026EEE
:10DFD000000E036E000E046E13BEF9EF6FF01350C7
:10DFE00006E11204D8B0F7EF6FF0F9EF6FF007EF2A
:10DFF00070F0000E136E000E126E000E016E000E19
:10E00000026E000E036E000E046E000E116E12C042
:10E0100018F018A00EEF70F010EF70F013EF70F022
:10E02000038E14EF70F0039ED8901830046ECAEF80
:10E030006EF012000450800B0D6E04500424136E19
:10E0400003AE25EF70F027EF70F028EF70F013802B
:10E050001350D8B42EEF70F030EF70F043EF70F043
:10E060001328D8A436EF70F038EF70F040EF70F05E
:10E07000000E016E000E026E000E036E000E046EA6
:10E08000038E4BEF70F0000E016E000E026E000E5C
:10E09000036E000E046E0850800B0D1A0850082401
:10E0A000126E07AE56EF70F058EF70F059EF70F047
:10E0B00012801250D8B45FEF70F061EF70F074EF1F
:10E0C00070F01228D8A467EF70F069EF70F071EF6C
:10E0D00070F0000E056E000E066E000E076E000E4C
:10E0E000086E078E7CEF70F0000E056E000E066E57
:10E0F000000E076E000E086E1250D8B482EF70F05A
:10E1000084EF70F08CEF70F01350D8A48AEF70F0A9
:10E110008CEF70F096EF70F0000E016E000E026E44
:10E12000000E036E000E046E2EEF72F00750010217
:10E13000F3CF18F0F4CF19F018500E6E0F6A106A72
:10E14000116A1950146E156A166A176A065002028F
:10E15000F3CF18F0F4CF19F018500E26000E0F224E
:10E160001022112219501426000E152216221722F1
:10E1700005500302F3CF18F0F4CF19F018500E2613
:10E18000000E0F221022112219501426000E152203
:10E190001622172210C011F00FC010F00EC00FF0A1
:10E1A0000E6A05500202F3CF18F0F4CF19F01850A0
:10E1B0000E2619500F22000E1022000E11220650BA
:10E1C0000102F3CF18F0F4CF19F018500E261950B1
:10E1D0000F22000E1022000E112210C011F00FC0ED
:10E1E00010F00EC00FF00E6A05500102F3CF18F0C8
:10E1F000F4CF19F018500E2619500F22000E1022DD
:10E20000000E112207500202F3CF18F0F4CF19F0DC
:10E210001850142619501522000E1622000E17222F
:10E2200006500302F3CF18F0F4CF19F0185014265B
:10E2300019501522000E1622000E17220750030255
:10E24000F3CF18F0F4CF19F01850096E19500A6E78
:10E250000B6A0C6A0BC00CF00AC00BF009C00AF084
:10E26000096A095014260A5015220B5016220C5028
:10E2700017220EC009F00FC00AF010C00BF011C039
:10E280000CF0190E49EF71F0D8900C320B320A32B3
:10E290000932E82E44EF71F0095014260A50152275
:10E2A0000B5016220C50172210C011F00FC010F0A6
:10E2B0000EC00FF00E6A125013C009F00A6A092648
:10E2C000000E0A22820E0924186EFF0E0A20196E13
:10E2D0007FEF71F0D890143615361636173611AE1A
:10E2E00074EF71F076EF71F077EF71F01480D890E1
:10E2F0000E360F36103611361806D8A0190616AE8F
:10E3000084EF71F086EF71F06AEF71F0000E126E1B
:10E3100011AE8DEF71F08FEF71F0B3EF71F0FF0E72
:10E320000E14096EFF0E0F140A6EFF0E10140B6E02
:10E330007F0E11140C6E09500A100B100C10D8B47B
:10E34000A4EF71F0A6EF71F0AAEF71F0010E126E5A
:10E35000B3EF71F014A0AFEF71F0B1EF71F0B3EF64
:10E3600071F0A6EF71F01250D8B4B9EF71F0BBEFB5
:10E3700071F0DFEF71F0010E1426000E1522162247
:10E38000172217A0C6EF71F0C8EF71F0DFEF71F040
:10E3900014C009F015C00AF016C00BF017C00CF03D
:10E3A0000C340C320B320A32093209C014F00AC0A4
:10E3B00015F00BC016F00CC017F0184A192A19BE38
:10E3C000EAEF71F0195008E11828D8A0EAEF71F0CF
:10E3D000ECEF71F0F6EF71F0000E146E000E156E9A
:10E3E000800E166E7F0E176E24EF72F019BE03EFCB
:10E3F00072F0195006E11804D8B001EF72F003EF83
:10E4000072F00FEF72F0000E146E000E156E000E1B
:10E41000166E000E176E000E0D6E24EF72F018C00F
:10E4200013F0FF0E1416FF0E15167F0E1616000EB3
:10E43000171613A01EEF72F020EF72F021EF72F0AA
:10E44000168ED8901330176E0D50171214C001F0AD
:10E4500015C002F016C003F017C004F012000450FB
:10E46000800B0D6E045004240F6E03AE3AEF72F071
:10E470003CEF72F03DEF72F00F800F50D8B443EFD5
:10E4800072F045EF72F05AEF72F00F28D8A44BEFFC
:10E4900072F04DEF72F055EF72F0000E016E000E4B
:10E4A000026E000E036E000E046E038E000E046EEC
:10E4B00062EF72F0000E016E000E026E000E036E2F
:10E4C000000E046E0850800B0E6E0D500E18D8B45E
:10E4D0006CEF72F06EEF72F06FEF72F00D8C08500F
:10E4E00008240E6E07AE77EF72F079EF72F07AEFD4
:10E4F00072F00E800E50D8B480EF72F082EF72F09E
:10E5000097EF72F00E28D8A488EF72F08AEF72F0BD
:10E5100092EF72F0000E056E000E066E000E076E92
:10E52000000E086E078E000E086E9FEF72F0000E50
:10E53000056E000E066E000E076E000E086E0F5080
:10E540000E5CD8B0A6EF72F0A8EF72F0CFEF72F0C9
:10E550000DACADEF72F0AFEF72F0B1EF72F0800E74
:10E560000D1A0FC010F00EC00FF010C00EF001C059
:10E5700010F005C001F010C005F002C010F006C098
:10E5800002F010C006F003C010F007C003F010C086
:10E5900007F004C010F008C004F010C008F0000E2E
:10E5A000106E0F500EC009F00A6A095E000E0A5A7A
:10E5B0000ABEE4EF72F00A5009E11A0E095CD8A015
:10E5C000E4EF72F0E6EF72F01DEF73F0015002100D
:10E5D00003100410D8A4EFEF72F0F2EF72F0010E06
:10E5E000F3EF72F0000E106E000E016E000E026E60
:10E5F000000E036E000E046E0EC00FF026EF73F0D7
:10E6000010A005EF73F007EF73F00DEF73F0D890E3
:10E6100010300109106E0FEF73F0D890103201A086
:10E6200014EF73F016EF73F017EF73F0108E0434DD
:10E6300004320332023201320F2A0E500F5CD8A08E
:10E6400024EF73F026EF73F000EF73F00DBC2BEFA7
:10E6500073F02DEF73F06DEF73F00F50D8A433EF1C
:10E6600073F035EF73F03FEF73F0000E016E000EA4
:10E67000026E000E036E000E046E8EEF74F00550F5
:10E68000012606500222075003220850042204A04B
:10E690004CEF73F04EEF73F0FAEF73F010A053EFFE
:10E6A00073F055EF73F05BEF73F0D8901030010901
:10E6B000106E5DEF73F0D890103201A062EF73F02E
:10E6C00064EF73F065EF73F0108E0434043203329C
:10E6D000023201320F2AFAEF73F00550015C065046
:10E6E0000258075003580450800A096E0850800AE7
:10E6F0000958D8B07EEF73F080EF73F0ABEF73F092
:10E700000150055C096E025006580A6E0350075806
:10E710000B6E045008580C6EFF0E0924016EFF0E9C
:10E720000A20026EFF0E0B20036EFF0E0C20046EFB
:10E73000800E0D1A106C1050D8A4A1EF73F0A3EF47
:10E7400073F0B3EF73F0010E0126000E02220322D4
:10E750000422B3EF73F00550015E0650025A0750D1
:10E76000035A0850045A0150021003100410D8A490
:10E77000BCEF73F0BEEF73F0F3EF73F01050D8A45A
:10E78000C4EF73F0C6EF73F0F3EF73F0000E016E99
:10E79000000E026E000E036E000E046E8EEF74F01B
:10E7A000D890013602360336043610AEDAEF73F035
:10E7B000DCEF73F0DDEF73F0018010A0E2EF73F097
:10E7C000E4EF73F0E8EF73F0D8801036EAEF73F0FF
:10E7D000D89010360F50D8B4F0EF73F0F2EF73F01A
:10E7E000F3EF73F00F0603AEF8EF73F0FAEF73F088
:10E7F000D0EF73F0000E0E6E10AE01EF74F003EF69
:10E8000074F01BEF74F010C009F07F0E0916D8B435
:10E810000CEF74F00EEF74F012EF74F0010E0E6E48
:10E820001BEF74F001A017EF74F019EF74F01BEFF9
:10E8300074F00EEF74F00E50D8B421EF74F023EFA3
:10E8400074F04EEF74F0010E0126000E0222032236
:10E85000042204A02EEF74F030EF74F04EEF74F049
:10E8600001C009F002C00AF003C00BF004C00CF0B4
:10E870000C340C320B320A32093209C001F00AC0E2
:10E8800002F00BC003F00CC004F00F28D8B44BEF1B
:10E8900074F04DEF74F04EEF74F00F2A0F28D8B4D7
:10E8A00054EF74F056EF74F05EEF74F00F50D8A48C
:10E8B0005CEF74F05EEF74F070EF74F0000E016EB8
:10E8C000000E026E000E036E000E046E0F50D8A4F0
:10E8D0006CEF74F06EEF74F070EF74F0000E0D6E6C
:10E8E0000FA075EF74F077EF74F07AEF74F0038E89
:10E8F0007BEF74F0039ED8900F30046E0DAE83EF63
:10E9000074F085EF74F086EF74F0048E01C001F0AE
:10E9100002C002F003C003F004C004F0120045C0BE
:10E92000D9FF46C0DAFFDECFF6FFDDCFF7FF0800E4
:10E93000F550250AD8A49FEF74F0A1EF74F0EFEF23
:10E9400078F045C0D9FF46C0DAFFDE2A000EDD228E
:10E95000000E0001FC6F000EFB6FFBC07CF0FCC0E2
:10E960007DF0FD69FE69000E5F6E000E5E6EFFEFCA
:10E9700074F07C8045C0D9FF46C0DAFFDE2A000E65
:10E98000DD22FFEF74F07C82BAEF74F07C84BAEF82
:10E9900074F07C86BAEF74F07C88BAEF74F0000EE5
:10E9A0005F6E010E5E6EFFEF74F045C0D9FF46C08A
:10E9B000DAFFDECFF6FFDDCFF7FF0800F550496E36
:10E9C0004A6A4A50000AD8B4E8EF74F0CFEF74F006
:10E9D0004950200AD8B4C9EF74F0030AD8B4CCEF78
:10E9E00074F0080AD8B4C6EF74F0060AD8B4B9EFC8
:10E9F00074F01D0AD8B4C3EF74F0CFEF74F05E501A
:10EA00005F10D8B406EF75F008EF75F0D5EF74F02D
:10EA10007CA00DEF75F00FEF75F010EF75F07C92A4
:10EA200045C0D9FF46C0DAFFDECFF6FFDDCFF7FFE6
:10EA30000800F5502A0AD8A420EF75F022EF75F0EF
:10EA40004CEF75F045C0D9FF46C0DAFFDE2A000E54
:10EA5000DD2247C0D9FF48C0DAFFDFCF49F0020E00
:10EA6000DE26DFCF4AF0000EDD2249C0D9FF4AC0C2
:10EA7000DAFFDECFFBF0DDCFFCF00001FCBF45EF9D
:10EA800075F043EF75F08FEF75F07C80FB6DFC1F28
:10EA9000D8B0FC2B8FEF75F045C0D9FF46C0DAFF28
:10EAA000DECF08F0DDCF09F0D4EC68F008C0FBF051
:10EAB00009C0FCF063EF75F045C0D9FF46C0DAFF2E
:10EAC000DE2A000EDD22D00E496EFF0E4A6E45C0D2
:10EAD000D9FF46C0DAFFDECFF6FFDDCFF7FF080033
:10EAE000F5504B6E4C6A49504B264A504C224C50C4
:10EAF0000AE10A0E4B5CD8A080EF75F083EF75F049
:10EB0000010E84EF75F0000E606E616A6050611056
:10EB1000D8A48DEF75F08FEF75F05CEF75F045C000
:10EB2000D9FF46C0DAFFDECFF6FFDDCFF7FF0800E2
:10EB3000F550076E086A78EC62F00750786E7850EE
:10EB4000D8B4A5EF75F0A7EF75F0DFEF75F045C00D
:10EB5000D9FF46C0DAFFDECF49F0DDCF4AF0010E23
:10EB60004926000E4A2249C0F6FF4AC0F7FF0800B6
:10EB7000F550076E086A78EC62F00750796E7950AC
:10EB8000D8B4C5EF75F0C7EF75F0DFEF75F045C08D
:10EB9000D9FF46C0DAFFDECF49F0DDCF4AF0020EE2
:10EBA0004926000E4A2249C0F6FF4AC0F7FF080076
:10EBB000F550076E086A78EC62F007507A6E45C02F
:10EBC000D9FF46C0DAFFDECFF6FFDDCFF7FF080042
:10EBD000F550630AD8A4EFEF75F0F1EF75F018EF78
:10EBE00076F045C0D9FF46C0DAFFDE2A000EDD22EE
:10EBF00047C0D9FF48C0DAFFDFCF49F0020EDE265A
:10EC0000DFCF4AF0000EDD2249C0D9FF4AC0DAFF4B
:10EC1000DF507B6E43C00AF044C00BF07BC00CF0A9
:10EC2000DFEC64F00AC043F00BC044F00AEF79F067
:10EC300045C0D9FF46C0DAFFDECFF6FFDDCFF7FFD4
:10EC40000800F550640AD8B428EF76F02AEF76F081
:10EC50003CEF76F045C0D9FF46C0DAFFDECFF6FFC5
:10EC6000DDCFF7FF0800F550690AD8A43AEF76F037
:10EC70003CEF76F07CEF76F045C0D9FF46C0DAFF76
:10EC8000DE2A000EDD2247C0D9FF48C0DAFFDFCF01
:10EC900049F0020EDE26DFCF4AF0000EDD2249C029
:10ECA000D9FF4AC0DAFFDECF64F0DDCF65F0000E99
:10ECB00065BEFF0E666E676E686E696E6A6E6B6E1D
:10ECC00043C01CF044C01DF064C01EF065C01FF0BE
:10ECD00066C020F067C021F068C022F069C023F050
:10ECE0006AC024F06BC025F0DDEC6CF01CC043F072
:10ECF0001DC044F00AEF79F045C0D9FF46C0DAFFE5
:10ED0000DECF01F0DDCF02F0F20E036EFF0E046ED7
:10ED1000000E066E020E056ECEEC66F0015002107B
:10ED2000D8B495EF76F097EF76F0B2EF76F045C075
:10ED3000D9FF46C0DAFFDECF01F0DDCF02F0F80EDA
:10ED4000036EFF0E046E000E066E020E056ECEEC14
:10ED500066F001500210D8A4B0EF76F0B2EF76F072
:10ED6000F5EF76F0020E45C0D9FF46C0DAFFDE2689
:10ED7000000EDD2247C0D9FF48C0DAFFDFCF49F0DF
:10ED8000040EDE26DFCF4AF0000EDD2249C0D9FF97
:10ED90004AC0DAFFDECF4BF0DECF4CF0DECF4DF0D5
:10EDA000DECF4EF04BC04FF04CC050F04DC051F094
:10EDB0004EC052F0536A52BE536853C054F053C011
:10EDC00055F053C056F04FC064F050C065F051C0CC
:10EDD00066F052C067F053C068F054C069F055C087
:10EDE0006AF056C06BF060EF76F0660E7818D8A423
:10EDF000FCEF76F0FEEF76F03EEF77F045C0D9FFFE
:10EE000046C0DAFFDECFF6FFDDCFF7FF0800F5CF13
:10EE10007BF045C0D9FF46C0DAFFDE2A000EDD22B6
:10EE200047C0D9FF48C0DAFFDFCF49F0040EDE2625
:10EE3000DFCF4AF0000EDD2249C0D9FF4AC0DAFF19
:10EE4000DECF74F0DECF75F0DECF76F0DECF77F078
:10EE500043C02EF044C02FF074C030F075C031F0C4
:10EE600076C032F077C033F07BC034F00BEC79F031
:10EE70002EC043F02FC044F00AEF79F0780E016EF7
:10EE8000000E026EF50E036EFF0E046E000E066E8F
:10EE9000020E056ECEEC66F001500210D8A453EFBE
:10EEA00077F055EF77F0D0EF77F045C0D9FF46C047
:10EEB000DAFFDECF49F0DDCF4AF0010E4926000E21
:10EEC0004A2249C0F6FF4AC0F7FF0800F5CF7BF0A1
:10EED000BF0E496EFF0E4A6E45C0D9FF46C0DAFF2D
:10EEE000DECFF6FFDDCFF7FF0800F5504B6E4C6A22
:10EEF00049504B264A504C224C500AE11A0E4B5CAA
:10EF0000D8A085EF77F088EF77F0010E89EF77F0E2
:10EF1000000E626E636A62506310D8B492EF77F0AD
:10EF200094EF77F0AEEF77F047C0D9FF48C0DAFF33
:10EF3000DFCF49F0040EDE26DFCF4AF0000EDD22DF
:10EF400049C0D9FF4AC0DAFFDECF74F0DECF75F0DA
:10EF5000DECF76F0DECF77F0C6EF77F047C0D9FF8F
:10EF600048C0DAFFDFCF49F0040EDE26DFCF4AF0DB
:10EF7000000EDD2249C0D9FF4AC0DAFFDECF74F0AF
:10EF8000DECF75F0DECF76F0DECF77F0020E45C033
:10EF9000D9FF46C0DAFFDE26000EDD2228EF77F02B
:10EFA00045C0D9FF46C0DAFFDECFF6FFDDCFF7FF61
:10EFB0000800F550780AD8B4E0EF77F0E2EF77F088
:10EFC000F4EF77F045C0D9FF46C0DAFFDECFF6FF99
:10EFD000DDCFF7FF0800F550580AD8A4F2EF77F01C
:10EFE000F4EF77F042EF78F045C0D9FF46C0DAFF82
:10EFF000DECFF6FFDDCFF7FF0800F5CF7BF045C091
:10F00000D9FF46C0DAFFDE2A000EDD2247C0D9FF55
:10F0100048C0DAFFDFCF49F0020EDE26DFCF4AF02C
:10F02000000EDD2249C0D9FF4AC0DAFFDECF4BF027
:10F03000DDCF4CF04BC06CF04CC06DF06E6A6F6A67
:10F04000706A716A726A736A43C01CF044C01DF032
:10F050006CC01EF06DC01FF06EC020F06FC021F0BC
:10F0600070C022F071C023F072C024F073C025F08C
:10F070007BC026F072EC6BF01CC043F01DC044F066
:10F080000AEF79F045C0D9FF46C0DAFFDECF01F0C4
:10F09000DDCF02F0FB0E036EFF0E046E000E066E57
:10F0A000020E056ECEEC66F001500210D8B45BEF94
:10F0B00078F05DEF78F078EF78F045C0D9FF46C082
:10F0C000DAFFDECF01F0DDCF02F0EF0E036EFF0EB0
:10F0D000046E000E066E020E056ECEEC66F0015058
:10F0E0000210D8A476EF78F078EF78F0B9EF78F0E6
:10F0F00045C0D9FF46C0DAFFDECF49F0DDCF4AF088
:10F10000010E4926000E4A2249C0F6FF4AC0F7FF09
:10F110000800F5CF7BF0020E45C0D9FF46C0DAFFEC
:10F12000DE26000EDD2247C0D9FF48C0DAFFDFCF60
:10F1300049F0040EDE26DFCF4AF0000EDD2249C082
:10F14000D9FF4AC0DAFFDECF4BF0DECF4CF0DECF86
:10F150004DF0DECF4EF04B506C6E4C506D6E4D50FE
:10F160006E6E4E506F6E706A716A726A736A24EFC7
:10F1700078F045C0D9FF46C0DAFFDECFF6FFDDCF1D
:10F18000F7FF0800F550250AD8A4C9EF78F0CBEFB7
:10F1900078F0E2EF78F045C0D9FF46C0DAFFDE2A0A
:10F1A000000EDD22000E026E250E016E43C003F03C
:10F1B00044C004F07AEC64F0000E446E010E436E1D
:10F1C0000AEF79F045C0D9FF46C0DAFFDE2A000E0B
:10F1D000DD22000E446E000E436E0AEF79F045C04A
:10F1E000D9FF46C0DAFFDECFF6FFDDCFF7FF08001C
:10F1F000F550016E026A43C003F044C004F07AEC9B
:10F2000064F045C0D9FF46C0DAFFDE2A000EDD22D9
:10F21000DCEF78F01200000E0001B16F000EB06F4D
:10F2200030C0C2F031C0C3F032C0C4F033C0C5F04A
:10F23000C5BF1FEF79F01DEF79F035EF79F0000EC3
:10F24000B16F010EB06FC2C001F0C3C002F0C4C004
:10F2500003F0C5C004F0D0EC60F001C0C2F002C001
:10F26000C3F003C0C4F004C0C5F0000E0001C96FB4
:10F27000000EC86FFBC0B4F0FCC0B5F0B051B111C6
:10F28000D8A445EF79F047EF79F04EEF79F07CA400
:10F290004CEF79F04EEF79F068EF79F0B051B111A1
:10F2A000D8A455EF79F057EF79F05DEF79F0000EC3
:10F2B000976F2B0E966F61EF79F0000E976F2D0E02
:10F2C000966F96C000F1C84BC92BB407D8A0B507FC
:10F2D000C2C001F0C3C002F0C4C003F0C5C004F056
:10F2E0004AEC65F001040210D8A479EF79F07BEFC5
:10F2F00079F0D2EF79F0BF0E356EFF0E366E3450D6
:10F30000376E386A355037263650382238500AE181
:10F310001A0E375CD8A08FEF79F092EF79F0010EDA
:10F3200093EF79F0000E0001986F996B9851991145
:10F33000D8B49DEF79F09FEF79F0ADEF79F0000E42
:10F34000C825016E010EC921026EDF0E036EFF0E8D
:10F35000046E1AEC62F0B9EF79F0000EC825016E68
:10F36000010EC921026EE70E036EFF0E046E1AEC49
:10F3700062F00001FD0EB427FF0EB5232EC011F080
:10F380002FC012F0000E136E010E146EB4C015F0F3
:10F39000B5C016F0B7EC63F011C02EF012C02FF01C
:10F3A00037EF7FF0C2C001F0C3C002F0C4C003F069
:10F3B000C5C004F04AEC65F001500210D8A4E3EF98
:10F3C00079F0E5EF79F025EF7AF0BF0E356EFF0E9C
:10F3D000366E3450376E386A3550372636503822FC
:10F3E00038500AE11A0E375CD8A0F9EF79F0FCEF3B
:10F3F00079F0010EFDEF79F0000E00019A6F9B6B22
:10F400009A519B11D8B407EF7AF009EF7AF017EF11
:10F410007AF0000EC825016E010EC921026EE30EBE
:10F42000036EFF0E046E1AEC62F0B9EF79F0000E75
:10F43000C825016E010EC921026EEB0E036EFF0E90
:10F44000046E1AEC62F0B9EF79F0000E0001CA6F99
:10F45000000ECB6F800ECC6F3F0ECD6F000EC76FCE
:10F46000000EC66FC2C001F0C3C002F0C4C003F0FA
:10F47000C5C004F0000E056E000E066E000E076E8D
:10F48000000E086E0AEC63F0D8B049EF7AF04BEF4B
:10F490007AF0CEEF7AF06AEF7AF0CAC001F0CBC012
:10F4A00002F0CCC003F0CDC004F0000E056E000EDB
:10F4B000066E200E076E410E086E1AEC70F001C049
:10F4C000CAF002C0CBF003C0CCF004C0CDF0000104
:10F4D000C64BC72BC2C01AF0C3C01BF0C4C01CF07F
:10F4E000C5C01DF0000E056E000E066E200E076EE4
:10F4F000410E086ECAC001F0CBC002F0CCC003F0D0
:10F50000CDC004F01AEC70F001C01EF002C01FF074
:10F5100003C020F004C021F0C9EC65F0D8B093EF2F
:10F520007AF095EF7AF04DEF7AF0B5EF7AF0CAC045
:10F5300001F0CBC002F0CCC003F0CDC004F0000E4F
:10F54000056E000E066E200E076E410E086E4DEC25
:10F550006EF001C0CAF002C0CBF003C0CCF004C012
:10F56000CDF00001C607D8A0C707C2C01AF0C3C0BB
:10F570001BF0C4C01CF0C5C01DF0CAC01EF0CBC03B
:10F580001FF0CCC020F0CDC021F0C9EC65F0D8A0B0
:10F59000CCEF7AF0CEEF7AF097EF7AF034C007F044
:10F5A000086A78EC62F007500001B76FB7C0B6F098
:10F5B000670EB719D8A4DFEF7AF0E1EF7AF007EF22
:10F5C0007BF0FD51FE11D8A4E8EF7AF0EAEF7AF073
:10F5D000EEEF7AF0000EFE6F010EFD6FFEBFFBEF47
:10F5E0007AF0FE5106E1FD05D8B0F9EF7AF0FBEFB5
:10F5F0007AF001EF7BF0000EB36F060EB26F10EFE2
:10F600007BF0FDC0B2F0FEC0B3F010EF7BF0FEBFA8
:10F610000CEF7BF00EEF7BF0FBEF7AF001EF7BF06D
:10F62000670EB719D8A417EF7BF019EF7BF048EFFE
:10F630007BF0C7AF27EF7BF0FC0EC65DFF0EC7590E
:10F64000D8A025EF7BF027EF7BF046EF7BF0FF0E95
:10F65000356EFF0E366EB2C037F0B3C038F035509D
:10F66000372636503822C651375C3850800A396EFA
:10F67000C751800A3958D8A040EF7BF042EF7BF0A9
:10F6800046EF7BF0660EB66F48EF7BF0650EB66F07
:10F69000B2C0A8F0B3C0A9F0670EB719D8A453EF51
:10F6A0007BF055EF7BF065EF7BF0660EB619D8A4C2
:10F6B0005CEF7BF05EEF7BF067EF7BF0C7BF65EF41
:10F6C0007BF063EF7BF067EF7BF0A84BA92B660E16
:10F6D000B619D8A46EEF7BF070EF7BF090EF7BF063
:10F6E000C7BF77EF7BF075EF7BF083EF7BF0000E09
:10F6F000CA6F000ECB6F800ECC6F3F0ECD6F000E29
:10F70000C76F000EC66F670EB719D8B48AEF7BF0CB
:10F710008CEF7BF090EF7BF0C651A827C751A9234F
:10F72000000EC16F000EC06FC2C0B8F0C3C0B9F008
:10F73000C4C0BAF0C5C0BBF0CAC0AAF0CBC0ABF021
:10F74000CCC0ACF0CDC0ADF021EF7CF0B8C001F082
:10F75000B9C002F0BAC003F0BBC004F0CAC005F0E3
:10F76000CBC006F0CCC007F0CDC008F04DEC6EF079
:10F7700001C01AF002C01BF003C01CF004C01DF051
:10F7800069EC6AF01AC0BCF01BC0BDF01CC0BEF032
:10F790001DC0BFF0BCC001F0BDC002F0BEC003F090
:10F7A000BFC004F04BEC66F001C0AEF002C0AFF099
:10F7B000B8C01AF0B9C01BF0BAC01CF0BBC01DF035
:10F7C000CAC005F0CBC006F0CCC007F0CDC008F031
:10F7D000BCC001F0BDC002F0BEC003F0BFC004F069
:10F7E0001AEC70F001C01EF002C01FF003C020F040
:10F7F00004C021F0A5EC61F01AC0B8F01BC0B9F04C
:10F800001CC0BAF01DC0BBF0CAC001F0CBC002F0F2
:10F81000CCC003F0CDC004F0000E056E000E066EE5
:10F82000200E076E410E086E4DEC6EF001C0CAF05E
:10F8300002C0CBF003C0CCF004C0CDF00001C04B3F
:10F84000C12BA851C05DC151800A356EA951800AF3
:10F850003558D8A02EEF7CF030EF7CF0A6EF7BF08F
:10F86000CAC001F0CBC002F0CCC003F0CDC004F0A0
:10F87000000E056E000E066EA00E076E400E086E9E
:10F880001AEC70F001C0BCF002C0BDF003C0BEF0C5
:10F8900004C0BFF0B8C01AF0B9C01BF0BAC01CF069
:10F8A000BBC01DF0BCC01EF0BDC01FF0BEC020F02C
:10F8B000BFC021F0C9EC65F0D8B061EF7CF063EF18
:10F8C0007CF06EEF7CF0000E0001BC6F000EBD6F8F
:10F8D000000EBE6F000EBF6F97EF7CF0B8C001F056
:10F8E000B9C002F0BAC003F0BBC004F0BCC005F060
:10F8F000BDC006F0BEC007F0BFC008F00AEC63F060
:10F90000D8A085EF7CF087EF7CF097EF7CF00001CA
:10F91000AEB18DEF7CF08FEF7CF097EF7CF0000EB6
:10F92000BC6F000EBD6F000EBE6F000EBF6FC2C079
:10F9300001F0C3C002F0C4C003F0C5C004F0BCC0F5
:10F9400005F0BDC006F0BEC007F0BFC008F02FEC48
:10F9500072F001C0B8F002C0B9F003C0BAF004C040
:10F96000BBF0B8C01AF0B9C01BF0BAC01CF0BBC0E5
:10F970001DF0000E056E000E066E200E076E410E85
:10F98000086EAAC001F0ABC002F0ACC003F0ADC07D
:10F9900004F01AEC70F001C01EF002C01FF003C0AA
:10F9A00020F004C021F0C9EC65F0D8A0DAEF7CF0BB
:10F9B000DCEF7CF005EF7DF00001C64BC72BAAC041
:10F9C00001F0ABC002F0ACC003F0ADC004F0000E1B
:10F9D000056E000E066E200E076E410E086E1AECC4
:10F9E00070F001C0AAF002C0ABF003C0ACF004C0DC
:10F9F000ADF0660E0001B619D8A401EF7DF003EF5B
:10FA00007DF005EF7DF0A84BA92BAAC0CAF0ABC0D2
:10FA1000CBF0ACC0CCF0ADC0CDF0650E0001B61996
:10FA2000D8B415EF7DF017EF7DF01DEF7DF0C6C067
:10FA3000A6F0C7C0A7F021EF7DF0000EA76F000E63
:10FA4000A66F000EA56F000EA46F000EA36F000E30
:10FA5000A26F000EC16F000EC06F1DEF7EF0B8C028
:10FA600001F0B9C002F0BAC003F0BBC004F0CAC0D4
:10FA700005F0CBC006F0CCC007F0CDC008F04DECCF
:10FA80006EF001C01AF002C01BF003C01CF004C0ED
:10FA90001DF069EC6AF01AC0BCF01BC0BDF01CC0C0
:10FAA000BEF01DC0BFF0BCC001F0BDC002F0BEC0C2
:10FAB00003F0BFC004F04BEC66F001C0AEF002C032
:10FAC000AFF07CB866EF7DF068EF7DF086EF7DF0FB
:10FAD0000001AE51AF11D8A470EF7DF072EF7DF050
:10FAE00086EF7DF0670EB719D8A479EF7DF07BEF34
:10FAF0007DF086EF7DF0A7BF82EF7DF080EF7DF097
:10FB000086EF7DF0A24BA32BD1EF7DF00001A45135
:10FB1000A511D8A48EEF7DF090EF7DF0BAEF7DF0C7
:10FB2000A7BF97EF7DF095EF7DF0BAEF7DF0000E67
:10FB3000C825D96E010EC921DA6E2E0EDF6EC84BB4
:10FB4000C92BB407D8A0B507000EA56F010EA46F8E
:10FB5000BAEF7DF0000EC825D96E010EC921DA6E0C
:10FB6000300EDF6EC84BC92BB407D8A0B507A2076B
:10FB7000D8A0A307A251A311D8A4C1EF7DF0C3EF71
:10FB80007DF0AAEF7DF0000EC825D96E010EC921C7
:10FB9000DA6EAE51300FDF6EC84BC92BB407D8A058
:10FBA000B507B8C01AF0B9C01BF0BAC01CF0BBC092
:10FBB0001DF0CAC005F0CBC006F0CCC007F0CDC028
:10FBC00008F0BCC001F0BDC002F0BEC003F0BFC071
:10FBD00004F01AEC70F001C01EF002C01FF003C068
:10FBE00020F004C021F0A5EC61F01AC0B8F01BC0F1
:10FBF000B9F01CC0BAF01DC0BBF0CAC001F0CBC048
:10FC000002F0CCC003F0CDC004F0000E056E000E73
:10FC1000066E200E076E410E086E4DEC6EF001C0B0
:10FC2000CAF002C0CBF003C0CCF004C0CDF000019C
:10FC3000A607D8A0A707C04BC12BA851C05DC151D2
:10FC4000800A356EA951800A3558D8B02AEF7EF067
:10FC50002CEF7EF03AEF7EF0C9BF38EF7EF0C9514D
:10FC600009E14B0EC85DD8A038EF7EF03AEF7EF088
:10FC70002FEF7DF0A451A511D8A441EF7EF043EF02
:10FC80007EF054EF7EF07CA848EF7EF04AEF7EF0E5
:10FC900054EF7EF0000EC825D96E010EC921DA6E30
:10FCA0002E0EDF6EC84BC92B000EC825D96E010E73
:10FCB000C921DA6E000EDF6E650EB619D8A463EFA7
:10FCC0007EF065EF7EF0BEEF79F0000EC16F4F0E53
:10FCD000C06F000EC025D96E010EC121DA6E000E74
:10FCE000DF6E000EB16F000EB06FC7BF7CEF7EF00D
:10FCF0007AEF7EF084EF7EF0000EB16F010EB06FF0
:10FD0000C66DC71FD8B0C72B000EB36F020EB26FFF
:10FD1000B5EF7EF0C007D8A0C107000EC025D96E90
:10FD2000010EC121DA6EC6C001F0C7C002F0000E9C
:10FD3000046E0A0E036E5FEC63F00150300FDF6E4D
:10FD4000C6C001F0C7C002F0000E046E0A0E036EBA
:10FD500018EC64F001C0C6F002C0C7F00001B207A1
:10FD6000D8A0B307B407D8A0B507C651C711D8A407
:10FD7000BCEF7EF0BEEF7EF08AEF7EF0B3BFCBEF3C
:10FD80007EF0B35106E1B205D8B0C9EF7EF0CBEFFB
:10FD90007EF08AEF7EF0C007D8A0C107B051B11144
:10FDA000D8A4D5EF7EF0D7EF7EF0DDEF7EF0000E29
:10FDB0009D6F2B0E9C6FE1EF7EF0000E9D6F2D0E60
:10FDC0009C6F000EC025D96E010EC121DA6E9CC059
:10FDD000DFFFB407D8A0B507C007D8A0C107BF0E82
:10FDE000356EFF0E366E3450376E386A3550372612
:10FDF0003650382238500AE11A0E375CD8A003EF8B
:10FE00007FF006EF7FF0010E07EF7FF0000EA06F8E
:10FE1000A16BA051A111D8A410EF7FF012EF7FF0D9
:10FE200018EF7FF0000E9F6F650E9E6F1CEF7FF046
:10FE3000000E9F6F450E9E6F000EC025D96E010EFD
:10FE4000C121DA6E9EC0DFFFB407D8A0B507000E4F
:10FE5000C825016E010EC921026E000EC025036E79
:10FE6000010EC121046E1AEC62F0BEEF79F01200AF
:10FE7000002D2D2D2D2D2D2D2D2D2D2D2D2D2D2DDF
:10FE80002D2D2D2D2D2D2D2D2D2D2D2D2D2D2D2DA2
:10FE90002D2D2D2D2D2D2D2D2D2D2D2D2D2D2D2D92
:10FEA0002D2D2D2D2D2D2D2D2D2D0D0A00456E7452
:10FEB000657220612073746174656D656E74206273
:10FEC000656C6F77202831352063686172616374D7
:10FED000657273293A0A0D00636872203D2025304F
:10FEE00032582C2073687274203D20253034582CF1
:10FEF000206C6E67203D2025303458253034580D55
:10FF00000A00636872203D2025632C207368727498
:10FF1000203D2025642C206C6E67203D20256C64DC
:10FF20002C20666C743D25660D0A00636872203DC6
:10FF300020253032582C2073687274203D202530E3
:10FF400034582C206C6E67203D20253038580D0A1F
:10FF5000002530782025307820253078202530780D
:10FF600020253078202530782025307820253078DD
:10FF70000D0A005072696E74696E6720535479706F
:10FF800065206669656C6473206174202825642986
:10FF90003A0D0A005072696E74696E672055547983
:10FFA0007065206669656C6473206174202825641F
:10FFB000293A0D0A000A0D52656365697665642069
:10FFC000737472696E673A200042797465206174B7
:10FFD00020282564293A0025303258483A20004923
:10FFE0004E46004E414E00696E66006E616E006CBA
:0FFFF00058006C64006C66006C69006C7800004F
:020000040020DA
:08000000FFFFFFFFFFFFFFFF00
:020000040030CA
:0E000000FF011F1FFF8385FF0FC00FE00F40A1
:00000001FF
